{"abi":[{"inputs":[{"internalType":"uint256","name":"minimum","type":"uint256"}],"name":"createCampaign","outputs":[],"stateMutability":"nonpayable","type":"function"},{"inputs":[],"name":"getDeployedCampaigns","outputs":[{"internalType":"address[]","name":"","type":"address[]"}],"stateMutability":"view","type":"function"}],"devdoc":{"kind":"dev","methods":{},"version":1},"evm":{"assembly":"    /* \"Campaign.sol\":67:423  contract CampaignFactory {... */\n  mstore(0x40, 0x80)\n  callvalue\n  dup1\n  iszero\n  tag_1\n  jumpi\n  0x00\n  dup1\n  revert\ntag_1:\n  pop\n  dataSize(sub_0)\n  dup1\n  dataOffset(sub_0)\n  0x00\n  codecopy\n  0x00\n  return\nstop\n\nsub_0: assembly {\n        /* \"Campaign.sol\":67:423  contract CampaignFactory {... */\n      mstore(0x40, 0x80)\n      callvalue\n      dup1\n      iszero\n      tag_1\n      jumpi\n      0x00\n      dup1\n      revert\n    tag_1:\n      pop\n      jumpi(tag_2, lt(calldatasize, 0x04))\n      shr(0xe0, calldataload(0x00))\n      dup1\n      0x4acb9d4f\n      eq\n      tag_3\n      jumpi\n      dup1\n      0xa3303a75\n      eq\n      tag_4\n      jumpi\n    tag_2:\n      0x00\n      dup1\n      revert\n        /* \"Campaign.sol\":309:421  function getDeployedCampaigns() public view returns (address[] memory) {... */\n    tag_3:\n      tag_5\n      tag_6\n      jump\t// in\n    tag_5:\n      mload(0x40)\n      tag_7\n      swap2\n      swap1\n      tag_8\n      jump\t// in\n    tag_7:\n      mload(0x40)\n      dup1\n      swap2\n      sub\n      swap1\n      return\n        /* \"Campaign.sol\":132:303  function createCampaign(uint minimum) public {... */\n    tag_4:\n      tag_9\n      0x04\n      dup1\n      calldatasize\n      sub\n      dup2\n      add\n      swap1\n      tag_10\n      swap2\n      swap1\n      tag_11\n      jump\t// in\n    tag_10:\n      tag_12\n      jump\t// in\n    tag_9:\n      stop\n        /* \"Campaign.sol\":309:421  function getDeployedCampaigns() public view returns (address[] memory) {... */\n    tag_6:\n        /* \"Campaign.sol\":362:378  address[] memory */\n      0x60\n        /* \"Campaign.sol\":397:414  deployedCampaigns */\n      0x00\n        /* \"Campaign.sol\":390:414  return deployedCampaigns */\n      dup1\n      sload\n      dup1\n      0x20\n      mul\n      0x20\n      add\n      mload(0x40)\n      swap1\n      dup2\n      add\n      0x40\n      mstore\n      dup1\n      swap3\n      swap2\n      swap1\n      dup2\n      dup2\n      mstore\n      0x20\n      add\n      dup3\n      dup1\n      sload\n      dup1\n      iszero\n      tag_14\n      jumpi\n      0x20\n      mul\n      dup3\n      add\n      swap2\n      swap1\n      0x00\n      mstore\n      keccak256(0x00, 0x20)\n      swap1\n    tag_15:\n      dup2\n      0x00\n      swap1\n      sload\n      swap1\n      0x0100\n      exp\n      swap1\n      div\n      0xffffffffffffffffffffffffffffffffffffffff\n      and\n      0xffffffffffffffffffffffffffffffffffffffff\n      and\n      dup2\n      mstore\n      0x20\n      add\n      swap1\n      0x01\n      add\n      swap1\n      dup1\n      dup4\n      gt\n      tag_15\n      jumpi\n    tag_14:\n      pop\n      pop\n      pop\n      pop\n      pop\n      swap1\n      pop\n        /* \"Campaign.sol\":309:421  function getDeployedCampaigns() public view returns (address[] memory) {... */\n      swap1\n      jump\t// out\n        /* \"Campaign.sol\":132:303  function createCampaign(uint minimum) public {... */\n    tag_12:\n        /* \"Campaign.sol\":187:206  address newCampaign */\n      0x00\n        /* \"Campaign.sol\":230:237  minimum */\n      dup2\n        /* \"Campaign.sol\":239:249  msg.sender */\n      caller\n        /* \"Campaign.sol\":217:250  new Campaign(minimum, msg.sender) */\n      mload(0x40)\n      tag_17\n      swap1\n      tag_18\n      jump\t// in\n    tag_17:\n      tag_19\n      swap3\n      swap2\n      swap1\n      tag_20\n      jump\t// in\n    tag_19:\n      mload(0x40)\n      dup1\n      swap2\n      sub\n      swap1\n      0x00\n      create\n      dup1\n      iszero\n      dup1\n      iszero\n      tag_21\n      jumpi\n      returndatasize\n      0x00\n      dup1\n      returndatacopy\n      revert(0x00, returndatasize)\n    tag_21:\n      pop\n        /* \"Campaign.sol\":187:251  address newCampaign = address(new Campaign(minimum, msg.sender)) */\n      swap1\n      pop\n        /* \"Campaign.sol\":261:278  deployedCampaigns */\n      0x00\n        /* \"Campaign.sol\":284:295  newCampaign */\n      dup2\n        /* \"Campaign.sol\":261:296  deployedCampaigns.push(newCampaign) */\n      swap1\n      dup1\n      0x01\n      dup2\n      sload\n      add\n      dup1\n      dup3\n      sstore\n      dup1\n      swap2\n      pop\n      pop\n      0x01\n      swap1\n      sub\n      swap1\n      0x00\n      mstore\n      keccak256(0x00, 0x20)\n      add\n      0x00\n      swap1\n      swap2\n      swap1\n      swap2\n      swap1\n      swap2\n      0x0100\n      exp\n      dup2\n      sload\n      dup2\n      0xffffffffffffffffffffffffffffffffffffffff\n      mul\n      not\n      and\n      swap1\n      dup4\n      0xffffffffffffffffffffffffffffffffffffffff\n      and\n      mul\n      or\n      swap1\n      sstore\n      pop\n        /* \"Campaign.sol\":177:303  {... */\n      pop\n        /* \"Campaign.sol\":132:303  function createCampaign(uint minimum) public {... */\n      pop\n      jump\t// out\n    tag_18:\n      dataSize(sub_0)\n      dup1\n      dataOffset(sub_0)\n      dup4\n      codecopy\n      add\n      swap1\n      jump\t// out\n        /* \"#utility.yul\":7:121   */\n    tag_23:\n        /* \"#utility.yul\":74:80   */\n      0x00\n        /* \"#utility.yul\":108:113   */\n      dup2\n        /* \"#utility.yul\":102:114   */\n      mload\n        /* \"#utility.yul\":92:114   */\n      swap1\n      pop\n        /* \"#utility.yul\":7:121   */\n      swap2\n      swap1\n      pop\n      jump\t// out\n        /* \"#utility.yul\":127:311   */\n    tag_24:\n        /* \"#utility.yul\":226:237   */\n      0x00\n        /* \"#utility.yul\":260:266   */\n      dup3\n        /* \"#utility.yul\":255:258   */\n      dup3\n        /* \"#utility.yul\":248:267   */\n      mstore\n        /* \"#utility.yul\":300:304   */\n      0x20\n        /* \"#utility.yul\":295:298   */\n      dup3\n        /* \"#utility.yul\":291:305   */\n      add\n        /* \"#utility.yul\":276:305   */\n      swap1\n      pop\n        /* \"#utility.yul\":127:311   */\n      swap3\n      swap2\n      pop\n      pop\n      jump\t// out\n        /* \"#utility.yul\":317:449   */\n    tag_25:\n        /* \"#utility.yul\":384:388   */\n      0x00\n        /* \"#utility.yul\":407:410   */\n      dup2\n        /* \"#utility.yul\":399:410   */\n      swap1\n      pop\n        /* \"#utility.yul\":437:441   */\n      0x20\n        /* \"#utility.yul\":432:435   */\n      dup3\n        /* \"#utility.yul\":428:442   */\n      add\n        /* \"#utility.yul\":420:442   */\n      swap1\n      pop\n        /* \"#utility.yul\":317:449   */\n      swap2\n      swap1\n      pop\n      jump\t// out\n        /* \"#utility.yul\":455:581   */\n    tag_26:\n        /* \"#utility.yul\":492:499   */\n      0x00\n        /* \"#utility.yul\":532:574   */\n      0xffffffffffffffffffffffffffffffffffffffff\n        /* \"#utility.yul\":525:530   */\n      dup3\n        /* \"#utility.yul\":521:575   */\n      and\n        /* \"#utility.yul\":510:575   */\n      swap1\n      pop\n        /* \"#utility.yul\":455:581   */\n      swap2\n      swap1\n      pop\n      jump\t// out\n        /* \"#utility.yul\":587:683   */\n    tag_27:\n        /* \"#utility.yul\":624:631   */\n      0x00\n        /* \"#utility.yul\":653:677   */\n      tag_46\n        /* \"#utility.yul\":671:676   */\n      dup3\n        /* \"#utility.yul\":653:677   */\n      tag_26\n      jump\t// in\n    tag_46:\n        /* \"#utility.yul\":642:677   */\n      swap1\n      pop\n        /* \"#utility.yul\":587:683   */\n      swap2\n      swap1\n      pop\n      jump\t// out\n        /* \"#utility.yul\":689:797   */\n    tag_28:\n        /* \"#utility.yul\":766:790   */\n      tag_48\n        /* \"#utility.yul\":784:789   */\n      dup2\n        /* \"#utility.yul\":766:790   */\n      tag_27\n      jump\t// in\n    tag_48:\n        /* \"#utility.yul\":761:764   */\n      dup3\n        /* \"#utility.yul\":754:791   */\n      mstore\n        /* \"#utility.yul\":689:797   */\n      pop\n      pop\n      jump\t// out\n        /* \"#utility.yul\":803:982   */\n    tag_29:\n        /* \"#utility.yul\":872:882   */\n      0x00\n        /* \"#utility.yul\":893:939   */\n      tag_50\n        /* \"#utility.yul\":935:938   */\n      dup4\n        /* \"#utility.yul\":927:933   */\n      dup4\n        /* \"#utility.yul\":893:939   */\n      tag_28\n      jump\t// in\n    tag_50:\n        /* \"#utility.yul\":971:975   */\n      0x20\n        /* \"#utility.yul\":966:969   */\n      dup4\n        /* \"#utility.yul\":962:976   */\n      add\n        /* \"#utility.yul\":948:976   */\n      swap1\n      pop\n        /* \"#utility.yul\":803:982   */\n      swap3\n      swap2\n      pop\n      pop\n      jump\t// out\n        /* \"#utility.yul\":988:1101   */\n    tag_30:\n        /* \"#utility.yul\":1058:1062   */\n      0x00\n        /* \"#utility.yul\":1090:1094   */\n      0x20\n        /* \"#utility.yul\":1085:1088   */\n      dup3\n        /* \"#utility.yul\":1081:1095   */\n      add\n        /* \"#utility.yul\":1073:1095   */\n      swap1\n      pop\n        /* \"#utility.yul\":988:1101   */\n      swap2\n      swap1\n      pop\n      jump\t// out\n        /* \"#utility.yul\":1137:1869   */\n    tag_31:\n        /* \"#utility.yul\":1256:1259   */\n      0x00\n        /* \"#utility.yul\":1285:1339   */\n      tag_53\n        /* \"#utility.yul\":1333:1338   */\n      dup3\n        /* \"#utility.yul\":1285:1339   */\n      tag_23\n      jump\t// in\n    tag_53:\n        /* \"#utility.yul\":1355:1441   */\n      tag_54\n        /* \"#utility.yul\":1434:1440   */\n      dup2\n        /* \"#utility.yul\":1429:1432   */\n      dup6\n        /* \"#utility.yul\":1355:1441   */\n      tag_24\n      jump\t// in\n    tag_54:\n        /* \"#utility.yul\":1348:1441   */\n      swap4\n      pop\n        /* \"#utility.yul\":1465:1521   */\n      tag_55\n        /* \"#utility.yul\":1515:1520   */\n      dup4\n        /* \"#utility.yul\":1465:1521   */\n      tag_25\n      jump\t// in\n    tag_55:\n        /* \"#utility.yul\":1544:1551   */\n      dup1\n        /* \"#utility.yul\":1575:1576   */\n      0x00\n        /* \"#utility.yul\":1560:1844   */\n    tag_56:\n        /* \"#utility.yul\":1585:1591   */\n      dup4\n        /* \"#utility.yul\":1582:1583   */\n      dup2\n        /* \"#utility.yul\":1579:1592   */\n      lt\n        /* \"#utility.yul\":1560:1844   */\n      iszero\n      tag_58\n      jumpi\n        /* \"#utility.yul\":1661:1667   */\n      dup2\n        /* \"#utility.yul\":1655:1668   */\n      mload\n        /* \"#utility.yul\":1688:1751   */\n      tag_59\n        /* \"#utility.yul\":1747:1750   */\n      dup9\n        /* \"#utility.yul\":1732:1745   */\n      dup3\n        /* \"#utility.yul\":1688:1751   */\n      tag_29\n      jump\t// in\n    tag_59:\n        /* \"#utility.yul\":1681:1751   */\n      swap8\n      pop\n        /* \"#utility.yul\":1774:1834   */\n      tag_60\n        /* \"#utility.yul\":1827:1833   */\n      dup4\n        /* \"#utility.yul\":1774:1834   */\n      tag_30\n      jump\t// in\n    tag_60:\n        /* \"#utility.yul\":1764:1834   */\n      swap3\n      pop\n        /* \"#utility.yul\":1620:1844   */\n      pop\n        /* \"#utility.yul\":1607:1608   */\n      0x01\n        /* \"#utility.yul\":1604:1605   */\n      dup2\n        /* \"#utility.yul\":1600:1609   */\n      add\n        /* \"#utility.yul\":1595:1609   */\n      swap1\n      pop\n        /* \"#utility.yul\":1560:1844   */\n      jump(tag_56)\n    tag_58:\n        /* \"#utility.yul\":1564:1578   */\n      pop\n        /* \"#utility.yul\":1860:1863   */\n      dup6\n        /* \"#utility.yul\":1853:1863   */\n      swap4\n      pop\n        /* \"#utility.yul\":1261:1869   */\n      pop\n      pop\n      pop\n        /* \"#utility.yul\":1137:1869   */\n      swap3\n      swap2\n      pop\n      pop\n      jump\t// out\n        /* \"#utility.yul\":1875:2248   */\n    tag_8:\n        /* \"#utility.yul\":2018:2022   */\n      0x00\n        /* \"#utility.yul\":2056:2058   */\n      0x20\n        /* \"#utility.yul\":2045:2054   */\n      dup3\n        /* \"#utility.yul\":2041:2059   */\n      add\n        /* \"#utility.yul\":2033:2059   */\n      swap1\n      pop\n        /* \"#utility.yul\":2105:2114   */\n      dup2\n        /* \"#utility.yul\":2099:2103   */\n      dup2\n        /* \"#utility.yul\":2095:2115   */\n      sub\n        /* \"#utility.yul\":2091:2092   */\n      0x00\n        /* \"#utility.yul\":2080:2089   */\n      dup4\n        /* \"#utility.yul\":2076:2093   */\n      add\n        /* \"#utility.yul\":2069:2116   */\n      mstore\n        /* \"#utility.yul\":2133:2241   */\n      tag_62\n        /* \"#utility.yul\":2236:2240   */\n      dup2\n        /* \"#utility.yul\":2227:2233   */\n      dup5\n        /* \"#utility.yul\":2133:2241   */\n      tag_31\n      jump\t// in\n    tag_62:\n        /* \"#utility.yul\":2125:2241   */\n      swap1\n      pop\n        /* \"#utility.yul\":1875:2248   */\n      swap3\n      swap2\n      pop\n      pop\n      jump\t// out\n        /* \"#utility.yul\":2335:2452   */\n    tag_33:\n        /* \"#utility.yul\":2444:2445   */\n      0x00\n        /* \"#utility.yul\":2441:2442   */\n      dup1\n        /* \"#utility.yul\":2434:2446   */\n      revert\n        /* \"#utility.yul\":2581:2658   */\n    tag_35:\n        /* \"#utility.yul\":2618:2625   */\n      0x00\n        /* \"#utility.yul\":2647:2652   */\n      dup2\n        /* \"#utility.yul\":2636:2652   */\n      swap1\n      pop\n        /* \"#utility.yul\":2581:2658   */\n      swap2\n      swap1\n      pop\n      jump\t// out\n        /* \"#utility.yul\":2664:2786   */\n    tag_36:\n        /* \"#utility.yul\":2737:2761   */\n      tag_68\n        /* \"#utility.yul\":2755:2760   */\n      dup2\n        /* \"#utility.yul\":2737:2761   */\n      tag_35\n      jump\t// in\n    tag_68:\n        /* \"#utility.yul\":2730:2735   */\n      dup2\n        /* \"#utility.yul\":2727:2762   */\n      eq\n        /* \"#utility.yul\":2717:2780   */\n      tag_69\n      jumpi\n        /* \"#utility.yul\":2776:2777   */\n      0x00\n        /* \"#utility.yul\":2773:2774   */\n      dup1\n        /* \"#utility.yul\":2766:2778   */\n      revert\n        /* \"#utility.yul\":2717:2780   */\n    tag_69:\n        /* \"#utility.yul\":2664:2786   */\n      pop\n      jump\t// out\n        /* \"#utility.yul\":2792:2931   */\n    tag_37:\n        /* \"#utility.yul\":2838:2843   */\n      0x00\n        /* \"#utility.yul\":2876:2882   */\n      dup2\n        /* \"#utility.yul\":2863:2883   */\n      calldataload\n        /* \"#utility.yul\":2854:2883   */\n      swap1\n      pop\n        /* \"#utility.yul\":2892:2925   */\n      tag_71\n        /* \"#utility.yul\":2919:2924   */\n      dup2\n        /* \"#utility.yul\":2892:2925   */\n      tag_36\n      jump\t// in\n    tag_71:\n        /* \"#utility.yul\":2792:2931   */\n      swap3\n      swap2\n      pop\n      pop\n      jump\t// out\n        /* \"#utility.yul\":2937:3266   */\n    tag_11:\n        /* \"#utility.yul\":2996:3002   */\n      0x00\n        /* \"#utility.yul\":3045:3047   */\n      0x20\n        /* \"#utility.yul\":3033:3042   */\n      dup3\n        /* \"#utility.yul\":3024:3031   */\n      dup5\n        /* \"#utility.yul\":3020:3043   */\n      sub\n        /* \"#utility.yul\":3016:3048   */\n      slt\n        /* \"#utility.yul\":3013:3132   */\n      iszero\n      tag_73\n      jumpi\n        /* \"#utility.yul\":3051:3130   */\n      tag_74\n      tag_33\n      jump\t// in\n    tag_74:\n        /* \"#utility.yul\":3013:3132   */\n    tag_73:\n        /* \"#utility.yul\":3171:3172   */\n      0x00\n        /* \"#utility.yul\":3196:3249   */\n      tag_75\n        /* \"#utility.yul\":3241:3248   */\n      dup5\n        /* \"#utility.yul\":3232:3238   */\n      dup3\n        /* \"#utility.yul\":3221:3230   */\n      dup6\n        /* \"#utility.yul\":3217:3239   */\n      add\n        /* \"#utility.yul\":3196:3249   */\n      tag_37\n      jump\t// in\n    tag_75:\n        /* \"#utility.yul\":3186:3249   */\n      swap2\n      pop\n        /* \"#utility.yul\":3142:3259   */\n      pop\n        /* \"#utility.yul\":2937:3266   */\n      swap3\n      swap2\n      pop\n      pop\n      jump\t// out\n        /* \"#utility.yul\":3272:3390   */\n    tag_38:\n        /* \"#utility.yul\":3359:3383   */\n      tag_77\n        /* \"#utility.yul\":3377:3382   */\n      dup2\n        /* \"#utility.yul\":3359:3383   */\n      tag_35\n      jump\t// in\n    tag_77:\n        /* \"#utility.yul\":3354:3357   */\n      dup3\n        /* \"#utility.yul\":3347:3384   */\n      mstore\n        /* \"#utility.yul\":3272:3390   */\n      pop\n      pop\n      jump\t// out\n        /* \"#utility.yul\":3396:3514   */\n    tag_39:\n        /* \"#utility.yul\":3483:3507   */\n      tag_79\n        /* \"#utility.yul\":3501:3506   */\n      dup2\n        /* \"#utility.yul\":3483:3507   */\n      tag_27\n      jump\t// in\n    tag_79:\n        /* \"#utility.yul\":3478:3481   */\n      dup3\n        /* \"#utility.yul\":3471:3508   */\n      mstore\n        /* \"#utility.yul\":3396:3514   */\n      pop\n      pop\n      jump\t// out\n        /* \"#utility.yul\":3520:3852   */\n    tag_20:\n        /* \"#utility.yul\":3641:3645   */\n      0x00\n        /* \"#utility.yul\":3679:3681   */\n      0x40\n        /* \"#utility.yul\":3668:3677   */\n      dup3\n        /* \"#utility.yul\":3664:3682   */\n      add\n        /* \"#utility.yul\":3656:3682   */\n      swap1\n      pop\n        /* \"#utility.yul\":3692:3763   */\n      tag_81\n        /* \"#utility.yul\":3760:3761   */\n      0x00\n        /* \"#utility.yul\":3749:3758   */\n      dup4\n        /* \"#utility.yul\":3745:3762   */\n      add\n        /* \"#utility.yul\":3736:3742   */\n      dup6\n        /* \"#utility.yul\":3692:3763   */\n      tag_38\n      jump\t// in\n    tag_81:\n        /* \"#utility.yul\":3773:3845   */\n      tag_82\n        /* \"#utility.yul\":3841:3843   */\n      0x20\n        /* \"#utility.yul\":3830:3839   */\n      dup4\n        /* \"#utility.yul\":3826:3844   */\n      add\n        /* \"#utility.yul\":3817:3823   */\n      dup5\n        /* \"#utility.yul\":3773:3845   */\n      tag_39\n      jump\t// in\n    tag_82:\n        /* \"#utility.yul\":3520:3852   */\n      swap4\n      swap3\n      pop\n      pop\n      pop\n      jump\t// out\n    stop\n\n    sub_0: assembly {\n            /* \"Campaign.sol\":425:2211  contract Campaign {... */\n          mstore(0x40, 0x80)\n            /* \"Campaign.sol\":904:1018  constructor(uint minimum, address sender) {... */\n          callvalue\n          dup1\n          iszero\n          tag_1\n          jumpi\n          0x00\n          dup1\n          revert\n        tag_1:\n          pop\n          mload(0x40)\n          sub(codesize, bytecodeSize)\n          dup1\n          bytecodeSize\n          dup4\n          codecopy\n          dup2\n          dup2\n          add\n          0x40\n          mstore\n          dup2\n          add\n          swap1\n          tag_2\n          swap2\n          swap1\n          tag_3\n          jump\t// in\n        tag_2:\n            /* \"Campaign.sol\":966:972  sender */\n          dup1\n            /* \"Campaign.sol\":956:963  manager */\n          0x00\n          dup1\n            /* \"Campaign.sol\":956:972  manager = sender */\n          0x0100\n          exp\n          dup2\n          sload\n          dup2\n          0xffffffffffffffffffffffffffffffffffffffff\n          mul\n          not\n          and\n          swap1\n          dup4\n          0xffffffffffffffffffffffffffffffffffffffff\n          and\n          mul\n          or\n          swap1\n          sstore\n          pop\n            /* \"Campaign.sol\":1004:1011  minimum */\n          dup2\n            /* \"Campaign.sol\":982:1001  minimumContribution */\n          0x01\n            /* \"Campaign.sol\":982:1011  minimumContribution = minimum */\n          dup2\n          swap1\n          sstore\n          pop\n            /* \"Campaign.sol\":904:1018  constructor(uint minimum, address sender) {... */\n          pop\n          pop\n            /* \"Campaign.sol\":425:2211  contract Campaign {... */\n          jump(tag_6)\n            /* \"#utility.yul\":88:205   */\n        tag_8:\n            /* \"#utility.yul\":197:198   */\n          0x00\n            /* \"#utility.yul\":194:195   */\n          dup1\n            /* \"#utility.yul\":187:199   */\n          revert\n            /* \"#utility.yul\":334:411   */\n        tag_10:\n            /* \"#utility.yul\":371:378   */\n          0x00\n            /* \"#utility.yul\":400:405   */\n          dup2\n            /* \"#utility.yul\":389:405   */\n          swap1\n          pop\n            /* \"#utility.yul\":334:411   */\n          swap2\n          swap1\n          pop\n          jump\t// out\n            /* \"#utility.yul\":417:539   */\n        tag_11:\n            /* \"#utility.yul\":490:514   */\n          tag_23\n            /* \"#utility.yul\":508:513   */\n          dup2\n            /* \"#utility.yul\":490:514   */\n          tag_10\n          jump\t// in\n        tag_23:\n            /* \"#utility.yul\":483:488   */\n          dup2\n            /* \"#utility.yul\":480:515   */\n          eq\n            /* \"#utility.yul\":470:533   */\n          tag_24\n          jumpi\n            /* \"#utility.yul\":529:530   */\n          0x00\n            /* \"#utility.yul\":526:527   */\n          dup1\n            /* \"#utility.yul\":519:531   */\n          revert\n            /* \"#utility.yul\":470:533   */\n        tag_24:\n            /* \"#utility.yul\":417:539   */\n          pop\n          jump\t// out\n            /* \"#utility.yul\":545:688   */\n        tag_12:\n            /* \"#utility.yul\":602:607   */\n          0x00\n            /* \"#utility.yul\":633:639   */\n          dup2\n            /* \"#utility.yul\":627:640   */\n          mload\n            /* \"#utility.yul\":618:640   */\n          swap1\n          pop\n            /* \"#utility.yul\":649:682   */\n          tag_26\n            /* \"#utility.yul\":676:681   */\n          dup2\n            /* \"#utility.yul\":649:682   */\n          tag_11\n          jump\t// in\n        tag_26:\n            /* \"#utility.yul\":545:688   */\n          swap3\n          swap2\n          pop\n          pop\n          jump\t// out\n            /* \"#utility.yul\":694:820   */\n        tag_13:\n            /* \"#utility.yul\":731:738   */\n          0x00\n            /* \"#utility.yul\":771:813   */\n          0xffffffffffffffffffffffffffffffffffffffff\n            /* \"#utility.yul\":764:769   */\n          dup3\n            /* \"#utility.yul\":760:814   */\n          and\n            /* \"#utility.yul\":749:814   */\n          swap1\n          pop\n            /* \"#utility.yul\":694:820   */\n          swap2\n          swap1\n          pop\n          jump\t// out\n            /* \"#utility.yul\":826:922   */\n        tag_14:\n            /* \"#utility.yul\":863:870   */\n          0x00\n            /* \"#utility.yul\":892:916   */\n          tag_29\n            /* \"#utility.yul\":910:915   */\n          dup3\n            /* \"#utility.yul\":892:916   */\n          tag_13\n          jump\t// in\n        tag_29:\n            /* \"#utility.yul\":881:916   */\n          swap1\n          pop\n            /* \"#utility.yul\":826:922   */\n          swap2\n          swap1\n          pop\n          jump\t// out\n            /* \"#utility.yul\":928:1050   */\n        tag_15:\n            /* \"#utility.yul\":1001:1025   */\n          tag_31\n            /* \"#utility.yul\":1019:1024   */\n          dup2\n            /* \"#utility.yul\":1001:1025   */\n          tag_14\n          jump\t// in\n        tag_31:\n            /* \"#utility.yul\":994:999   */\n          dup2\n            /* \"#utility.yul\":991:1026   */\n          eq\n            /* \"#utility.yul\":981:1044   */\n          tag_32\n          jumpi\n            /* \"#utility.yul\":1040:1041   */\n          0x00\n            /* \"#utility.yul\":1037:1038   */\n          dup1\n            /* \"#utility.yul\":1030:1042   */\n          revert\n            /* \"#utility.yul\":981:1044   */\n        tag_32:\n            /* \"#utility.yul\":928:1050   */\n          pop\n          jump\t// out\n            /* \"#utility.yul\":1056:1199   */\n        tag_16:\n            /* \"#utility.yul\":1113:1118   */\n          0x00\n            /* \"#utility.yul\":1144:1150   */\n          dup2\n            /* \"#utility.yul\":1138:1151   */\n          mload\n            /* \"#utility.yul\":1129:1151   */\n          swap1\n          pop\n            /* \"#utility.yul\":1160:1193   */\n          tag_34\n            /* \"#utility.yul\":1187:1192   */\n          dup2\n            /* \"#utility.yul\":1160:1193   */\n          tag_15\n          jump\t// in\n        tag_34:\n            /* \"#utility.yul\":1056:1199   */\n          swap3\n          swap2\n          pop\n          pop\n          jump\t// out\n            /* \"#utility.yul\":1205:1712   */\n        tag_3:\n            /* \"#utility.yul\":1284:1290   */\n          0x00\n            /* \"#utility.yul\":1292:1298   */\n          dup1\n            /* \"#utility.yul\":1341:1343   */\n          0x40\n            /* \"#utility.yul\":1329:1338   */\n          dup4\n            /* \"#utility.yul\":1320:1327   */\n          dup6\n            /* \"#utility.yul\":1316:1339   */\n          sub\n            /* \"#utility.yul\":1312:1344   */\n          slt\n            /* \"#utility.yul\":1309:1428   */\n          iszero\n          tag_36\n          jumpi\n            /* \"#utility.yul\":1347:1426   */\n          tag_37\n          tag_8\n          jump\t// in\n        tag_37:\n            /* \"#utility.yul\":1309:1428   */\n        tag_36:\n            /* \"#utility.yul\":1467:1468   */\n          0x00\n            /* \"#utility.yul\":1492:1556   */\n          tag_38\n            /* \"#utility.yul\":1548:1555   */\n          dup6\n            /* \"#utility.yul\":1539:1545   */\n          dup3\n            /* \"#utility.yul\":1528:1537   */\n          dup7\n            /* \"#utility.yul\":1524:1546   */\n          add\n            /* \"#utility.yul\":1492:1556   */\n          tag_12\n          jump\t// in\n        tag_38:\n            /* \"#utility.yul\":1482:1556   */\n          swap3\n          pop\n            /* \"#utility.yul\":1438:1566   */\n          pop\n            /* \"#utility.yul\":1605:1607   */\n          0x20\n            /* \"#utility.yul\":1631:1695   */\n          tag_39\n            /* \"#utility.yul\":1687:1694   */\n          dup6\n            /* \"#utility.yul\":1678:1684   */\n          dup3\n            /* \"#utility.yul\":1667:1676   */\n          dup7\n            /* \"#utility.yul\":1663:1685   */\n          add\n            /* \"#utility.yul\":1631:1695   */\n          tag_16\n          jump\t// in\n        tag_39:\n            /* \"#utility.yul\":1621:1695   */\n          swap2\n          pop\n            /* \"#utility.yul\":1576:1705   */\n          pop\n            /* \"#utility.yul\":1205:1712   */\n          swap3\n          pop\n          swap3\n          swap1\n          pop\n          jump\t// out\n            /* \"Campaign.sol\":425:2211  contract Campaign {... */\n        tag_6:\n          dataSize(sub_0)\n          dup1\n          dataOffset(sub_0)\n          0x00\n          codecopy\n          0x00\n          return\n        stop\n\n        sub_0: assembly {\n                /* \"Campaign.sol\":425:2211  contract Campaign {... */\n              mstore(0x40, 0x80)\n              jumpi(tag_1, lt(calldatasize, 0x04))\n              shr(0xe0, calldataload(0x00))\n              dup1\n              0x8a9cfd55\n              gt\n              tag_9\n              jumpi\n              dup1\n              0x8a9cfd55\n              eq\n              tag_5\n              jumpi\n              dup1\n              0x937e09b1\n              eq\n              tag_6\n              jumpi\n              dup1\n              0xd7bb99ba\n              eq\n              tag_7\n              jumpi\n              dup1\n              0xd7d1bbdb\n              eq\n              tag_8\n              jumpi\n              jump(tag_1)\n            tag_9:\n              dup1\n              0x03441006\n              eq\n              tag_2\n              jumpi\n              dup1\n              0x481c6a75\n              eq\n              tag_3\n              jumpi\n              dup1\n              0x81d12c58\n              eq\n              tag_4\n              jumpi\n            tag_1:\n              0x00\n              dup1\n              revert\n                /* \"Campaign.sol\":1903:2209  function finalizeRequest(uint index) public restricted {... */\n            tag_2:\n              callvalue\n              dup1\n              iszero\n              tag_10\n              jumpi\n              0x00\n              dup1\n              revert\n            tag_10:\n              pop\n              tag_11\n              0x04\n              dup1\n              calldatasize\n              sub\n              dup2\n              add\n              swap1\n              tag_12\n              swap2\n              swap1\n              tag_13\n              jump\t// in\n            tag_12:\n              tag_14\n              jump\t// in\n            tag_11:\n              stop\n                /* \"Campaign.sol\":738:760  address public manager */\n            tag_3:\n              callvalue\n              dup1\n              iszero\n              tag_15\n              jumpi\n              0x00\n              dup1\n              revert\n            tag_15:\n              pop\n              tag_16\n              tag_17\n              jump\t// in\n            tag_16:\n              mload(0x40)\n              tag_18\n              swap2\n              swap1\n              tag_19\n              jump\t// in\n            tag_18:\n              mload(0x40)\n              dup1\n              swap2\n              sub\n              swap1\n              return\n                /* \"Campaign.sol\":868:893  Request[] public requests */\n            tag_4:\n              callvalue\n              dup1\n              iszero\n              tag_20\n              jumpi\n              0x00\n              dup1\n              revert\n            tag_20:\n              pop\n              tag_21\n              0x04\n              dup1\n              calldatasize\n              sub\n              dup2\n              add\n              swap1\n              tag_22\n              swap2\n              swap1\n              tag_13\n              jump\t// in\n            tag_22:\n              tag_23\n              jump\t// in\n            tag_21:\n              mload(0x40)\n              tag_24\n              swap6\n              swap5\n              swap4\n              swap3\n              swap2\n              swap1\n              tag_25\n              jump\t// in\n            tag_24:\n              mload(0x40)\n              dup1\n              swap2\n              sub\n              swap1\n              return\n                /* \"Campaign.sol\":1188:1612  function createRequest(string memory description, uint amount, address recipient) ... */\n            tag_5:\n              tag_26\n              0x04\n              dup1\n              calldatasize\n              sub\n              dup2\n              add\n              swap1\n              tag_27\n              swap2\n              swap1\n              tag_28\n              jump\t// in\n            tag_27:\n              tag_29\n              jump\t// in\n            tag_26:\n              stop\n                /* \"Campaign.sol\":766:797  uint public minimumContribution */\n            tag_6:\n              callvalue\n              dup1\n              iszero\n              tag_30\n              jumpi\n              0x00\n              dup1\n              revert\n            tag_30:\n              pop\n              tag_31\n              tag_32\n              jump\t// in\n            tag_31:\n              mload(0x40)\n              tag_33\n              swap2\n              swap1\n              tag_34\n              jump\t// in\n            tag_33:\n              mload(0x40)\n              dup1\n              swap2\n              sub\n              swap1\n              return\n                /* \"Campaign.sol\":1024:1182  function contribute() public payable {... */\n            tag_7:\n              tag_35\n              tag_36\n              jump\t// in\n            tag_35:\n              stop\n                /* \"Campaign.sol\":1618:1897  function approveRequest(uint index) public {        ... */\n            tag_8:\n              callvalue\n              dup1\n              iszero\n              tag_37\n              jumpi\n              0x00\n              dup1\n              revert\n            tag_37:\n              pop\n              tag_38\n              0x04\n              dup1\n              calldatasize\n              sub\n              dup2\n              add\n              swap1\n              tag_39\n              swap2\n              swap1\n              tag_13\n              jump\t// in\n            tag_39:\n              tag_40\n              jump\t// in\n            tag_38:\n              stop\n                /* \"Campaign.sol\":1903:2209  function finalizeRequest(uint index) public restricted {... */\n            tag_14:\n                /* \"Campaign.sol\":702:709  manager */\n              0x00\n              dup1\n              sload\n              swap1\n              0x0100\n              exp\n              swap1\n              div\n              0xffffffffffffffffffffffffffffffffffffffff\n              and\n                /* \"Campaign.sol\":688:709  msg.sender == manager */\n              0xffffffffffffffffffffffffffffffffffffffff\n              and\n                /* \"Campaign.sol\":688:698  msg.sender */\n              caller\n                /* \"Campaign.sol\":688:709  msg.sender == manager */\n              0xffffffffffffffffffffffffffffffffffffffff\n              and\n              eq\n                /* \"Campaign.sol\":680:710  require(msg.sender == manager) */\n              tag_42\n              jumpi\n              0x00\n              dup1\n              revert\n            tag_42:\n                /* \"Campaign.sol\":1968:1991  Request storage request */\n              0x00\n                /* \"Campaign.sol\":1994:2002  requests */\n              0x04\n                /* \"Campaign.sol\":2003:2008  index */\n              dup3\n                /* \"Campaign.sol\":1994:2009  requests[index] */\n              dup2\n              sload\n              dup2\n              lt\n              tag_44\n              jumpi\n              tag_45\n              tag_46\n              jump\t// in\n            tag_45:\n            tag_44:\n              swap1\n              0x00\n              mstore\n              keccak256(0x00, 0x20)\n              swap1\n              0x05\n              mul\n              add\n                /* \"Campaign.sol\":1968:2009  Request storage request = requests[index] */\n              swap1\n              pop\n                /* \"Campaign.sol\":2069:2070  2 */\n              0x02\n                /* \"Campaign.sol\":2052:2066  approversCount */\n              sload(0x03)\n                /* \"Campaign.sol\":2052:2070  approversCount / 2 */\n              tag_48\n              swap2\n              swap1\n              tag_49\n              jump\t// in\n            tag_48:\n                /* \"Campaign.sol\":2027:2034  request */\n              dup2\n                /* \"Campaign.sol\":2027:2048  request.approvalCount */\n              0x04\n              add\n              sload\n                /* \"Campaign.sol\":2027:2071  request.approvalCount > (approversCount / 2) */\n              gt\n                /* \"Campaign.sol\":2019:2072  require(request.approvalCount > (approversCount / 2)) */\n              tag_50\n              jumpi\n              0x00\n              dup1\n              revert\n            tag_50:\n                /* \"Campaign.sol\":2091:2098  request */\n              dup1\n                /* \"Campaign.sol\":2091:2107  request.complete */\n              0x02\n              add\n              0x14\n              swap1\n              sload\n              swap1\n              0x0100\n              exp\n              swap1\n              div\n              0xff\n              and\n                /* \"Campaign.sol\":2090:2107  !request.complete */\n              iszero\n                /* \"Campaign.sol\":2082:2108  require(!request.complete) */\n              tag_51\n              jumpi\n              0x00\n              dup1\n              revert\n            tag_51:\n                /* \"Campaign.sol\":2126:2133  request */\n              dup1\n                /* \"Campaign.sol\":2126:2143  request.recipient */\n              0x02\n              add\n              0x00\n              swap1\n              sload\n              swap1\n              0x0100\n              exp\n              swap1\n              div\n              0xffffffffffffffffffffffffffffffffffffffff\n              and\n                /* \"Campaign.sol\":2118:2153  payable(request.recipient).transfer */\n              0xffffffffffffffffffffffffffffffffffffffff\n              and\n                /* \"Campaign.sol\":2118:2169  payable(request.recipient).transfer(request.amount) */\n              0x08fc\n                /* \"Campaign.sol\":2154:2161  request */\n              dup3\n                /* \"Campaign.sol\":2154:2168  request.amount */\n              0x01\n              add\n              sload\n                /* \"Campaign.sol\":2118:2169  payable(request.recipient).transfer(request.amount) */\n              swap1\n              dup2\n              iszero\n              mul\n              swap1\n              mload(0x40)\n              0x00\n              mload(0x40)\n              dup1\n              dup4\n              sub\n              dup2\n              dup6\n              dup9\n              dup9\n              call\n              swap4\n              pop\n              pop\n              pop\n              pop\n              iszero\n              dup1\n              iszero\n              tag_53\n              jumpi\n              returndatasize\n              0x00\n              dup1\n              returndatacopy\n              revert(0x00, returndatasize)\n            tag_53:\n              pop\n                /* \"Campaign.sol\":2198:2202  true */\n              0x01\n                /* \"Campaign.sol\":2179:2186  request */\n              dup2\n                /* \"Campaign.sol\":2179:2195  request.complete */\n              0x02\n              add\n              0x14\n                /* \"Campaign.sol\":2179:2202  request.complete = true */\n              0x0100\n              exp\n              dup2\n              sload\n              dup2\n              0xff\n              mul\n              not\n              and\n              swap1\n              dup4\n              iszero\n              iszero\n              mul\n              or\n              swap1\n              sstore\n              pop\n                /* \"Campaign.sol\":1958:2209  {... */\n              pop\n                /* \"Campaign.sol\":1903:2209  function finalizeRequest(uint index) public restricted {... */\n              pop\n              jump\t// out\n                /* \"Campaign.sol\":738:760  address public manager */\n            tag_17:\n              0x00\n              dup1\n              sload\n              swap1\n              0x0100\n              exp\n              swap1\n              div\n              0xffffffffffffffffffffffffffffffffffffffff\n              and\n              dup2\n              jump\t// out\n                /* \"Campaign.sol\":868:893  Request[] public requests */\n            tag_23:\n              0x04\n              dup2\n              dup2\n              sload\n              dup2\n              lt\n              tag_54\n              jumpi\n              0x00\n              dup1\n              revert\n            tag_54:\n              swap1\n              0x00\n              mstore\n              keccak256(0x00, 0x20)\n              swap1\n              0x05\n              mul\n              add\n              0x00\n              swap2\n              pop\n              swap1\n              pop\n              dup1\n              0x00\n              add\n              dup1\n              sload\n              tag_56\n              swap1\n              tag_57\n              jump\t// in\n            tag_56:\n              dup1\n              0x1f\n              add\n              0x20\n              dup1\n              swap2\n              div\n              mul\n              0x20\n              add\n              mload(0x40)\n              swap1\n              dup2\n              add\n              0x40\n              mstore\n              dup1\n              swap3\n              swap2\n              swap1\n              dup2\n              dup2\n              mstore\n              0x20\n              add\n              dup3\n              dup1\n              sload\n              tag_58\n              swap1\n              tag_57\n              jump\t// in\n            tag_58:\n              dup1\n              iszero\n              tag_59\n              jumpi\n              dup1\n              0x1f\n              lt\n              tag_60\n              jumpi\n              0x0100\n              dup1\n              dup4\n              sload\n              div\n              mul\n              dup4\n              mstore\n              swap2\n              0x20\n              add\n              swap2\n              jump(tag_59)\n            tag_60:\n              dup3\n              add\n              swap2\n              swap1\n              0x00\n              mstore\n              keccak256(0x00, 0x20)\n              swap1\n            tag_61:\n              dup2\n              sload\n              dup2\n              mstore\n              swap1\n              0x01\n              add\n              swap1\n              0x20\n              add\n              dup1\n              dup4\n              gt\n              tag_61\n              jumpi\n              dup3\n              swap1\n              sub\n              0x1f\n              and\n              dup3\n              add\n              swap2\n            tag_59:\n              pop\n              pop\n              pop\n              pop\n              pop\n              swap1\n              dup1\n              0x01\n              add\n              sload\n              swap1\n              dup1\n              0x02\n              add\n              0x00\n              swap1\n              sload\n              swap1\n              0x0100\n              exp\n              swap1\n              div\n              0xffffffffffffffffffffffffffffffffffffffff\n              and\n              swap1\n              dup1\n              0x02\n              add\n              0x14\n              swap1\n              sload\n              swap1\n              0x0100\n              exp\n              swap1\n              div\n              0xff\n              and\n              swap1\n              dup1\n              0x04\n              add\n              sload\n              swap1\n              pop\n              dup6\n              jump\t// out\n                /* \"Campaign.sol\":1188:1612  function createRequest(string memory description, uint amount, address recipient) ... */\n            tag_29:\n                /* \"Campaign.sol\":702:709  manager */\n              0x00\n              dup1\n              sload\n              swap1\n              0x0100\n              exp\n              swap1\n              div\n              0xffffffffffffffffffffffffffffffffffffffff\n              and\n                /* \"Campaign.sol\":688:709  msg.sender == manager */\n              0xffffffffffffffffffffffffffffffffffffffff\n              and\n                /* \"Campaign.sol\":688:698  msg.sender */\n              caller\n                /* \"Campaign.sol\":688:709  msg.sender == manager */\n              0xffffffffffffffffffffffffffffffffffffffff\n              and\n              eq\n                /* \"Campaign.sol\":680:710  require(msg.sender == manager) */\n              tag_63\n              jumpi\n              0x00\n              dup1\n              revert\n            tag_63:\n                /* \"Campaign.sol\":1328:1337  approvers */\n              0x02\n                /* \"Campaign.sol\":1328:1349  approvers[msg.sender] */\n              0x00\n                /* \"Campaign.sol\":1338:1348  msg.sender */\n              caller\n                /* \"Campaign.sol\":1328:1349  approvers[msg.sender] */\n              0xffffffffffffffffffffffffffffffffffffffff\n              and\n              0xffffffffffffffffffffffffffffffffffffffff\n              and\n              dup2\n              mstore\n              0x20\n              add\n              swap1\n              dup2\n              mstore\n              0x20\n              add\n              0x00\n              keccak256\n              0x00\n              swap1\n              sload\n              swap1\n              0x0100\n              exp\n              swap1\n              div\n              0xff\n              and\n                /* \"Campaign.sol\":1320:1350  require(approvers[msg.sender]) */\n              tag_65\n              jumpi\n              0x00\n              dup1\n              revert\n            tag_65:\n                /* \"Campaign.sol\":1361:1387  Request storage newRequest */\n              0x00\n                /* \"Campaign.sol\":1390:1398  requests */\n              0x04\n                /* \"Campaign.sol\":1390:1405  requests.push() */\n              0x01\n              dup2\n              0x01\n              dup2\n              sload\n              add\n              dup1\n              dup3\n              sstore\n              dup1\n              swap2\n              pop\n              pop\n              sub\n              swap1\n              0x00\n              mstore\n              keccak256(0x00, 0x20)\n              swap1\n              0x05\n              mul\n              add\n                /* \"Campaign.sol\":1361:1405  Request storage newRequest = requests.push() */\n              swap1\n              pop\n                /* \"Campaign.sol\":1441:1452  description */\n              dup4\n                /* \"Campaign.sol\":1416:1426  newRequest */\n              dup2\n                /* \"Campaign.sol\":1416:1438  newRequest.description */\n              0x00\n              add\n                /* \"Campaign.sol\":1416:1452  newRequest.description = description */\n              swap1\n              dup1\n              mload\n              swap1\n              0x20\n              add\n              swap1\n              tag_67\n              swap3\n              swap2\n              swap1\n              tag_68\n              jump\t// in\n            tag_67:\n              pop\n                /* \"Campaign.sol\":1482:1488  amount */\n              dup3\n                /* \"Campaign.sol\":1462:1472  newRequest */\n              dup2\n                /* \"Campaign.sol\":1462:1479  newRequest.amount */\n              0x01\n              add\n                /* \"Campaign.sol\":1462:1488  newRequest.amount = amount */\n              dup2\n              swap1\n              sstore\n              pop\n                /* \"Campaign.sol\":1521:1530  recipient */\n              dup2\n                /* \"Campaign.sol\":1498:1508  newRequest */\n              dup2\n                /* \"Campaign.sol\":1498:1518  newRequest.recipient */\n              0x02\n              add\n              0x00\n                /* \"Campaign.sol\":1498:1530  newRequest.recipient = recipient */\n              0x0100\n              exp\n              dup2\n              sload\n              dup2\n              0xffffffffffffffffffffffffffffffffffffffff\n              mul\n              not\n              and\n              swap1\n              dup4\n              0xffffffffffffffffffffffffffffffffffffffff\n              and\n              mul\n              or\n              swap1\n              sstore\n              pop\n                /* \"Campaign.sol\":1562:1567  false */\n              0x00\n                /* \"Campaign.sol\":1540:1550  newRequest */\n              dup2\n                /* \"Campaign.sol\":1540:1559  newRequest.complete */\n              0x02\n              add\n              0x14\n                /* \"Campaign.sol\":1540:1567  newRequest.complete = false */\n              0x0100\n              exp\n              dup2\n              sload\n              dup2\n              0xff\n              mul\n              not\n              and\n              swap1\n              dup4\n              iszero\n              iszero\n              mul\n              or\n              swap1\n              sstore\n              pop\n                /* \"Campaign.sol\":1604:1605  0 */\n              0x00\n                /* \"Campaign.sol\":1577:1587  newRequest */\n              dup2\n                /* \"Campaign.sol\":1577:1601  newRequest.approvalCount */\n              0x04\n              add\n                /* \"Campaign.sol\":1577:1605  newRequest.approvalCount = 0 */\n              dup2\n              swap1\n              sstore\n              pop\n                /* \"Campaign.sol\":1310:1612  {... */\n              pop\n                /* \"Campaign.sol\":1188:1612  function createRequest(string memory description, uint amount, address recipient) ... */\n              pop\n              pop\n              pop\n              jump\t// out\n                /* \"Campaign.sol\":766:797  uint public minimumContribution */\n            tag_32:\n              sload(0x01)\n              dup2\n              jump\t// out\n                /* \"Campaign.sol\":1024:1182  function contribute() public payable {... */\n            tag_36:\n                /* \"Campaign.sol\":1091:1110  minimumContribution */\n              sload(0x01)\n                /* \"Campaign.sol\":1079:1088  msg.value */\n              callvalue\n                /* \"Campaign.sol\":1079:1110  msg.value > minimumContribution */\n              gt\n                /* \"Campaign.sol\":1071:1111  require(msg.value > minimumContribution) */\n              tag_70\n              jumpi\n              0x00\n              dup1\n              revert\n            tag_70:\n                /* \"Campaign.sol\":1145:1149  true */\n              0x01\n                /* \"Campaign.sol\":1121:1130  approvers */\n              0x02\n                /* \"Campaign.sol\":1121:1142  approvers[msg.sender] */\n              0x00\n                /* \"Campaign.sol\":1131:1141  msg.sender */\n              caller\n                /* \"Campaign.sol\":1121:1142  approvers[msg.sender] */\n              0xffffffffffffffffffffffffffffffffffffffff\n              and\n              0xffffffffffffffffffffffffffffffffffffffff\n              and\n              dup2\n              mstore\n              0x20\n              add\n              swap1\n              dup2\n              mstore\n              0x20\n              add\n              0x00\n              keccak256\n              0x00\n                /* \"Campaign.sol\":1121:1149  approvers[msg.sender] = true */\n              0x0100\n              exp\n              dup2\n              sload\n              dup2\n              0xff\n              mul\n              not\n              and\n              swap1\n              dup4\n              iszero\n              iszero\n              mul\n              or\n              swap1\n              sstore\n              pop\n                /* \"Campaign.sol\":1159:1173  approversCount */\n              0x03\n              0x00\n                /* \"Campaign.sol\":1159:1175  approversCount++ */\n              dup2\n              sload\n              dup1\n              swap3\n              swap2\n              swap1\n              tag_71\n              swap1\n              tag_72\n              jump\t// in\n            tag_71:\n              swap2\n              swap1\n              pop\n              sstore\n              pop\n                /* \"Campaign.sol\":1024:1182  function contribute() public payable {... */\n              jump\t// out\n                /* \"Campaign.sol\":1618:1897  function approveRequest(uint index) public {        ... */\n            tag_40:\n                /* \"Campaign.sol\":1687:1696  approvers */\n              0x02\n                /* \"Campaign.sol\":1687:1708  approvers[msg.sender] */\n              0x00\n                /* \"Campaign.sol\":1697:1707  msg.sender */\n              caller\n                /* \"Campaign.sol\":1687:1708  approvers[msg.sender] */\n              0xffffffffffffffffffffffffffffffffffffffff\n              and\n              0xffffffffffffffffffffffffffffffffffffffff\n              and\n              dup2\n              mstore\n              0x20\n              add\n              swap1\n              dup2\n              mstore\n              0x20\n              add\n              0x00\n              keccak256\n              0x00\n              swap1\n              sload\n              swap1\n              0x0100\n              exp\n              swap1\n              div\n              0xff\n              and\n                /* \"Campaign.sol\":1679:1709  require(approvers[msg.sender]) */\n              tag_74\n              jumpi\n              0x00\n              dup1\n              revert\n            tag_74:\n                /* \"Campaign.sol\":1719:1742  Request storage request */\n              0x00\n                /* \"Campaign.sol\":1745:1753  requests */\n              0x04\n                /* \"Campaign.sol\":1754:1759  index */\n              dup3\n                /* \"Campaign.sol\":1745:1760  requests[index] */\n              dup2\n              sload\n              dup2\n              lt\n              tag_75\n              jumpi\n              tag_76\n              tag_46\n              jump\t// in\n            tag_76:\n            tag_75:\n              swap1\n              0x00\n              mstore\n              keccak256(0x00, 0x20)\n              swap1\n              0x05\n              mul\n              add\n                /* \"Campaign.sol\":1719:1760  Request storage request = requests[index] */\n              swap1\n              pop\n                /* \"Campaign.sol\":1780:1787  request */\n              dup1\n                /* \"Campaign.sol\":1780:1797  request.approvals */\n              0x03\n              add\n                /* \"Campaign.sol\":1780:1809  request.approvals[msg.sender] */\n              0x00\n                /* \"Campaign.sol\":1798:1808  msg.sender */\n              caller\n                /* \"Campaign.sol\":1780:1809  request.approvals[msg.sender] */\n              0xffffffffffffffffffffffffffffffffffffffff\n              and\n              0xffffffffffffffffffffffffffffffffffffffff\n              and\n              dup2\n              mstore\n              0x20\n              add\n              swap1\n              dup2\n              mstore\n              0x20\n              add\n              0x00\n              keccak256\n              0x00\n              swap1\n              sload\n              swap1\n              0x0100\n              exp\n              swap1\n              div\n              0xff\n              and\n                /* \"Campaign.sol\":1779:1809  !request.approvals[msg.sender] */\n              iszero\n                /* \"Campaign.sol\":1771:1810  require(!request.approvals[msg.sender]) */\n              tag_78\n              jumpi\n              0x00\n              dup1\n              revert\n            tag_78:\n                /* \"Campaign.sol\":1853:1857  true */\n              0x01\n                /* \"Campaign.sol\":1821:1828  request */\n              dup2\n                /* \"Campaign.sol\":1821:1838  request.approvals */\n              0x03\n              add\n                /* \"Campaign.sol\":1821:1850  request.approvals[msg.sender] */\n              0x00\n                /* \"Campaign.sol\":1839:1849  msg.sender */\n              caller\n                /* \"Campaign.sol\":1821:1850  request.approvals[msg.sender] */\n              0xffffffffffffffffffffffffffffffffffffffff\n              and\n              0xffffffffffffffffffffffffffffffffffffffff\n              and\n              dup2\n              mstore\n              0x20\n              add\n              swap1\n              dup2\n              mstore\n              0x20\n              add\n              0x00\n              keccak256\n              0x00\n                /* \"Campaign.sol\":1821:1857  request.approvals[msg.sender] = true */\n              0x0100\n              exp\n              dup2\n              sload\n              dup2\n              0xff\n              mul\n              not\n              and\n              swap1\n              dup4\n              iszero\n              iszero\n              mul\n              or\n              swap1\n              sstore\n              pop\n                /* \"Campaign.sol\":1867:1874  request */\n              dup1\n                /* \"Campaign.sol\":1867:1888  request.approvalCount */\n              0x04\n              add\n              0x00\n                /* \"Campaign.sol\":1867:1890  request.approvalCount++ */\n              dup2\n              sload\n              dup1\n              swap3\n              swap2\n              swap1\n              tag_79\n              swap1\n              tag_72\n              jump\t// in\n            tag_79:\n              swap2\n              swap1\n              pop\n              sstore\n              pop\n                /* \"Campaign.sol\":1661:1897  {        ... */\n              pop\n                /* \"Campaign.sol\":1618:1897  function approveRequest(uint index) public {        ... */\n              pop\n              jump\t// out\n            tag_68:\n              dup3\n              dup1\n              sload\n              tag_80\n              swap1\n              tag_57\n              jump\t// in\n            tag_80:\n              swap1\n              0x00\n              mstore\n              keccak256(0x00, 0x20)\n              swap1\n              0x1f\n              add\n              0x20\n              swap1\n              div\n              dup2\n              add\n              swap3\n              dup3\n              tag_82\n              jumpi\n              0x00\n              dup6\n              sstore\n              jump(tag_81)\n            tag_82:\n              dup3\n              0x1f\n              lt\n              tag_83\n              jumpi\n              dup1\n              mload\n              not(0xff)\n              and\n              dup4\n              dup1\n              add\n              or\n              dup6\n              sstore\n              jump(tag_81)\n            tag_83:\n              dup3\n              dup1\n              add\n              0x01\n              add\n              dup6\n              sstore\n              dup3\n              iszero\n              tag_81\n              jumpi\n              swap2\n              dup3\n              add\n            tag_84:\n              dup3\n              dup2\n              gt\n              iszero\n              tag_85\n              jumpi\n              dup3\n              mload\n              dup3\n              sstore\n              swap2\n              0x20\n              add\n              swap2\n              swap1\n              0x01\n              add\n              swap1\n              jump(tag_84)\n            tag_85:\n            tag_81:\n              pop\n              swap1\n              pop\n              tag_86\n              swap2\n              swap1\n              tag_87\n              jump\t// in\n            tag_86:\n              pop\n              swap1\n              jump\t// out\n            tag_87:\n            tag_88:\n              dup1\n              dup3\n              gt\n              iszero\n              tag_89\n              jumpi\n              0x00\n              dup2\n              0x00\n              swap1\n              sstore\n              pop\n              0x01\n              add\n              jump(tag_88)\n            tag_89:\n              pop\n              swap1\n              jump\t// out\n                /* \"#utility.yul\":7:82   */\n            tag_90:\n                /* \"#utility.yul\":40:46   */\n              0x00\n                /* \"#utility.yul\":73:75   */\n              0x40\n                /* \"#utility.yul\":67:76   */\n              mload\n                /* \"#utility.yul\":57:76   */\n              swap1\n              pop\n                /* \"#utility.yul\":7:82   */\n              swap1\n              jump\t// out\n                /* \"#utility.yul\":88:205   */\n            tag_91:\n                /* \"#utility.yul\":197:198   */\n              0x00\n                /* \"#utility.yul\":194:195   */\n              dup1\n                /* \"#utility.yul\":187:199   */\n              revert\n                /* \"#utility.yul\":211:328   */\n            tag_92:\n                /* \"#utility.yul\":320:321   */\n              0x00\n                /* \"#utility.yul\":317:318   */\n              dup1\n                /* \"#utility.yul\":310:322   */\n              revert\n                /* \"#utility.yul\":334:411   */\n            tag_93:\n                /* \"#utility.yul\":371:378   */\n              0x00\n                /* \"#utility.yul\":400:405   */\n              dup2\n                /* \"#utility.yul\":389:405   */\n              swap1\n              pop\n                /* \"#utility.yul\":334:411   */\n              swap2\n              swap1\n              pop\n              jump\t// out\n                /* \"#utility.yul\":417:539   */\n            tag_94:\n                /* \"#utility.yul\":490:514   */\n              tag_127\n                /* \"#utility.yul\":508:513   */\n              dup2\n                /* \"#utility.yul\":490:514   */\n              tag_93\n              jump\t// in\n            tag_127:\n                /* \"#utility.yul\":483:488   */\n              dup2\n                /* \"#utility.yul\":480:515   */\n              eq\n                /* \"#utility.yul\":470:533   */\n              tag_128\n              jumpi\n                /* \"#utility.yul\":529:530   */\n              0x00\n                /* \"#utility.yul\":526:527   */\n              dup1\n                /* \"#utility.yul\":519:531   */\n              revert\n                /* \"#utility.yul\":470:533   */\n            tag_128:\n                /* \"#utility.yul\":417:539   */\n              pop\n              jump\t// out\n                /* \"#utility.yul\":545:684   */\n            tag_95:\n                /* \"#utility.yul\":591:596   */\n              0x00\n                /* \"#utility.yul\":629:635   */\n              dup2\n                /* \"#utility.yul\":616:636   */\n              calldataload\n                /* \"#utility.yul\":607:636   */\n              swap1\n              pop\n                /* \"#utility.yul\":645:678   */\n              tag_130\n                /* \"#utility.yul\":672:677   */\n              dup2\n                /* \"#utility.yul\":645:678   */\n              tag_94\n              jump\t// in\n            tag_130:\n                /* \"#utility.yul\":545:684   */\n              swap3\n              swap2\n              pop\n              pop\n              jump\t// out\n                /* \"#utility.yul\":690:1019   */\n            tag_13:\n                /* \"#utility.yul\":749:755   */\n              0x00\n                /* \"#utility.yul\":798:800   */\n              0x20\n                /* \"#utility.yul\":786:795   */\n              dup3\n                /* \"#utility.yul\":777:784   */\n              dup5\n                /* \"#utility.yul\":773:796   */\n              sub\n                /* \"#utility.yul\":769:801   */\n              slt\n                /* \"#utility.yul\":766:885   */\n              iszero\n              tag_132\n              jumpi\n                /* \"#utility.yul\":804:883   */\n              tag_133\n              tag_91\n              jump\t// in\n            tag_133:\n                /* \"#utility.yul\":766:885   */\n            tag_132:\n                /* \"#utility.yul\":924:925   */\n              0x00\n                /* \"#utility.yul\":949:1002   */\n              tag_134\n                /* \"#utility.yul\":994:1001   */\n              dup5\n                /* \"#utility.yul\":985:991   */\n              dup3\n                /* \"#utility.yul\":974:983   */\n              dup6\n                /* \"#utility.yul\":970:992   */\n              add\n                /* \"#utility.yul\":949:1002   */\n              tag_95\n              jump\t// in\n            tag_134:\n                /* \"#utility.yul\":939:1002   */\n              swap2\n              pop\n                /* \"#utility.yul\":895:1012   */\n              pop\n                /* \"#utility.yul\":690:1019   */\n              swap3\n              swap2\n              pop\n              pop\n              jump\t// out\n                /* \"#utility.yul\":1025:1151   */\n            tag_96:\n                /* \"#utility.yul\":1062:1069   */\n              0x00\n                /* \"#utility.yul\":1102:1144   */\n              0xffffffffffffffffffffffffffffffffffffffff\n                /* \"#utility.yul\":1095:1100   */\n              dup3\n                /* \"#utility.yul\":1091:1145   */\n              and\n                /* \"#utility.yul\":1080:1145   */\n              swap1\n              pop\n                /* \"#utility.yul\":1025:1151   */\n              swap2\n              swap1\n              pop\n              jump\t// out\n                /* \"#utility.yul\":1157:1253   */\n            tag_97:\n                /* \"#utility.yul\":1194:1201   */\n              0x00\n                /* \"#utility.yul\":1223:1247   */\n              tag_137\n                /* \"#utility.yul\":1241:1246   */\n              dup3\n                /* \"#utility.yul\":1223:1247   */\n              tag_96\n              jump\t// in\n            tag_137:\n                /* \"#utility.yul\":1212:1247   */\n              swap1\n              pop\n                /* \"#utility.yul\":1157:1253   */\n              swap2\n              swap1\n              pop\n              jump\t// out\n                /* \"#utility.yul\":1259:1377   */\n            tag_98:\n                /* \"#utility.yul\":1346:1370   */\n              tag_139\n                /* \"#utility.yul\":1364:1369   */\n              dup2\n                /* \"#utility.yul\":1346:1370   */\n              tag_97\n              jump\t// in\n            tag_139:\n                /* \"#utility.yul\":1341:1344   */\n              dup3\n                /* \"#utility.yul\":1334:1371   */\n              mstore\n                /* \"#utility.yul\":1259:1377   */\n              pop\n              pop\n              jump\t// out\n                /* \"#utility.yul\":1383:1605   */\n            tag_19:\n                /* \"#utility.yul\":1476:1480   */\n              0x00\n                /* \"#utility.yul\":1514:1516   */\n              0x20\n                /* \"#utility.yul\":1503:1512   */\n              dup3\n                /* \"#utility.yul\":1499:1517   */\n              add\n                /* \"#utility.yul\":1491:1517   */\n              swap1\n              pop\n                /* \"#utility.yul\":1527:1598   */\n              tag_141\n                /* \"#utility.yul\":1595:1596   */\n              0x00\n                /* \"#utility.yul\":1584:1593   */\n              dup4\n                /* \"#utility.yul\":1580:1597   */\n              add\n                /* \"#utility.yul\":1571:1577   */\n              dup5\n                /* \"#utility.yul\":1527:1598   */\n              tag_98\n              jump\t// in\n            tag_141:\n                /* \"#utility.yul\":1383:1605   */\n              swap3\n              swap2\n              pop\n              pop\n              jump\t// out\n                /* \"#utility.yul\":1611:1710   */\n            tag_99:\n                /* \"#utility.yul\":1663:1669   */\n              0x00\n                /* \"#utility.yul\":1697:1702   */\n              dup2\n                /* \"#utility.yul\":1691:1703   */\n              mload\n                /* \"#utility.yul\":1681:1703   */\n              swap1\n              pop\n                /* \"#utility.yul\":1611:1710   */\n              swap2\n              swap1\n              pop\n              jump\t// out\n                /* \"#utility.yul\":1716:1885   */\n            tag_100:\n                /* \"#utility.yul\":1800:1811   */\n              0x00\n                /* \"#utility.yul\":1834:1840   */\n              dup3\n                /* \"#utility.yul\":1829:1832   */\n              dup3\n                /* \"#utility.yul\":1822:1841   */\n              mstore\n                /* \"#utility.yul\":1874:1878   */\n              0x20\n                /* \"#utility.yul\":1869:1872   */\n              dup3\n                /* \"#utility.yul\":1865:1879   */\n              add\n                /* \"#utility.yul\":1850:1879   */\n              swap1\n              pop\n                /* \"#utility.yul\":1716:1885   */\n              swap3\n              swap2\n              pop\n              pop\n              jump\t// out\n                /* \"#utility.yul\":1891:2198   */\n            tag_101:\n                /* \"#utility.yul\":1959:1960   */\n              0x00\n                /* \"#utility.yul\":1969:2082   */\n            tag_145:\n                /* \"#utility.yul\":1983:1989   */\n              dup4\n                /* \"#utility.yul\":1980:1981   */\n              dup2\n                /* \"#utility.yul\":1977:1990   */\n              lt\n                /* \"#utility.yul\":1969:2082   */\n              iszero\n              tag_147\n              jumpi\n                /* \"#utility.yul\":2068:2069   */\n              dup1\n                /* \"#utility.yul\":2063:2066   */\n              dup3\n                /* \"#utility.yul\":2059:2070   */\n              add\n                /* \"#utility.yul\":2053:2071   */\n              mload\n                /* \"#utility.yul\":2049:2050   */\n              dup2\n                /* \"#utility.yul\":2044:2047   */\n              dup5\n                /* \"#utility.yul\":2040:2051   */\n              add\n                /* \"#utility.yul\":2033:2072   */\n              mstore\n                /* \"#utility.yul\":2005:2007   */\n              0x20\n                /* \"#utility.yul\":2002:2003   */\n              dup2\n                /* \"#utility.yul\":1998:2008   */\n              add\n                /* \"#utility.yul\":1993:2008   */\n              swap1\n              pop\n                /* \"#utility.yul\":1969:2082   */\n              jump(tag_145)\n            tag_147:\n                /* \"#utility.yul\":2100:2106   */\n              dup4\n                /* \"#utility.yul\":2097:2098   */\n              dup2\n                /* \"#utility.yul\":2094:2107   */\n              gt\n                /* \"#utility.yul\":2091:2192   */\n              iszero\n              tag_148\n              jumpi\n                /* \"#utility.yul\":2180:2181   */\n              0x00\n                /* \"#utility.yul\":2171:2177   */\n              dup5\n                /* \"#utility.yul\":2166:2169   */\n              dup5\n                /* \"#utility.yul\":2162:2178   */\n              add\n                /* \"#utility.yul\":2155:2182   */\n              mstore\n                /* \"#utility.yul\":2091:2192   */\n            tag_148:\n                /* \"#utility.yul\":1940:2198   */\n              pop\n                /* \"#utility.yul\":1891:2198   */\n              pop\n              pop\n              pop\n              jump\t// out\n                /* \"#utility.yul\":2204:2306   */\n            tag_102:\n                /* \"#utility.yul\":2245:2251   */\n              0x00\n                /* \"#utility.yul\":2296:2298   */\n              0x1f\n                /* \"#utility.yul\":2292:2299   */\n              not\n                /* \"#utility.yul\":2287:2289   */\n              0x1f\n                /* \"#utility.yul\":2280:2285   */\n              dup4\n                /* \"#utility.yul\":2276:2290   */\n              add\n                /* \"#utility.yul\":2272:2300   */\n              and\n                /* \"#utility.yul\":2262:2300   */\n              swap1\n              pop\n                /* \"#utility.yul\":2204:2306   */\n              swap2\n              swap1\n              pop\n              jump\t// out\n                /* \"#utility.yul\":2312:2676   */\n            tag_103:\n                /* \"#utility.yul\":2400:2403   */\n              0x00\n                /* \"#utility.yul\":2428:2467   */\n              tag_151\n                /* \"#utility.yul\":2461:2466   */\n              dup3\n                /* \"#utility.yul\":2428:2467   */\n              tag_99\n              jump\t// in\n            tag_151:\n                /* \"#utility.yul\":2483:2554   */\n              tag_152\n                /* \"#utility.yul\":2547:2553   */\n              dup2\n                /* \"#utility.yul\":2542:2545   */\n              dup6\n                /* \"#utility.yul\":2483:2554   */\n              tag_100\n              jump\t// in\n            tag_152:\n                /* \"#utility.yul\":2476:2554   */\n              swap4\n              pop\n                /* \"#utility.yul\":2563:2615   */\n              tag_153\n                /* \"#utility.yul\":2608:2614   */\n              dup2\n                /* \"#utility.yul\":2603:2606   */\n              dup6\n                /* \"#utility.yul\":2596:2600   */\n              0x20\n                /* \"#utility.yul\":2589:2594   */\n              dup7\n                /* \"#utility.yul\":2585:2601   */\n              add\n                /* \"#utility.yul\":2563:2615   */\n              tag_101\n              jump\t// in\n            tag_153:\n                /* \"#utility.yul\":2640:2669   */\n              tag_154\n                /* \"#utility.yul\":2662:2668   */\n              dup2\n                /* \"#utility.yul\":2640:2669   */\n              tag_102\n              jump\t// in\n            tag_154:\n                /* \"#utility.yul\":2635:2638   */\n              dup5\n                /* \"#utility.yul\":2631:2670   */\n              add\n                /* \"#utility.yul\":2624:2670   */\n              swap2\n              pop\n                /* \"#utility.yul\":2404:2676   */\n              pop\n                /* \"#utility.yul\":2312:2676   */\n              swap3\n              swap2\n              pop\n              pop\n              jump\t// out\n                /* \"#utility.yul\":2682:2800   */\n            tag_104:\n                /* \"#utility.yul\":2769:2793   */\n              tag_156\n                /* \"#utility.yul\":2787:2792   */\n              dup2\n                /* \"#utility.yul\":2769:2793   */\n              tag_93\n              jump\t// in\n            tag_156:\n                /* \"#utility.yul\":2764:2767   */\n              dup3\n                /* \"#utility.yul\":2757:2794   */\n              mstore\n                /* \"#utility.yul\":2682:2800   */\n              pop\n              pop\n              jump\t// out\n                /* \"#utility.yul\":2806:2896   */\n            tag_105:\n                /* \"#utility.yul\":2840:2847   */\n              0x00\n                /* \"#utility.yul\":2883:2888   */\n              dup2\n                /* \"#utility.yul\":2876:2889   */\n              iszero\n                /* \"#utility.yul\":2869:2890   */\n              iszero\n                /* \"#utility.yul\":2858:2890   */\n              swap1\n              pop\n                /* \"#utility.yul\":2806:2896   */\n              swap2\n              swap1\n              pop\n              jump\t// out\n                /* \"#utility.yul\":2902:3011   */\n            tag_106:\n                /* \"#utility.yul\":2983:3004   */\n              tag_159\n                /* \"#utility.yul\":2998:3003   */\n              dup2\n                /* \"#utility.yul\":2983:3004   */\n              tag_105\n              jump\t// in\n            tag_159:\n                /* \"#utility.yul\":2978:2981   */\n              dup3\n                /* \"#utility.yul\":2971:3005   */\n              mstore\n                /* \"#utility.yul\":2902:3011   */\n              pop\n              pop\n              jump\t// out\n                /* \"#utility.yul\":3017:3760   */\n            tag_25:\n                /* \"#utility.yul\":3236:3240   */\n              0x00\n                /* \"#utility.yul\":3274:3277   */\n              0xa0\n                /* \"#utility.yul\":3263:3272   */\n              dup3\n                /* \"#utility.yul\":3259:3278   */\n              add\n                /* \"#utility.yul\":3251:3278   */\n              swap1\n              pop\n                /* \"#utility.yul\":3324:3333   */\n              dup2\n                /* \"#utility.yul\":3318:3322   */\n              dup2\n                /* \"#utility.yul\":3314:3334   */\n              sub\n                /* \"#utility.yul\":3310:3311   */\n              0x00\n                /* \"#utility.yul\":3299:3308   */\n              dup4\n                /* \"#utility.yul\":3295:3312   */\n              add\n                /* \"#utility.yul\":3288:3335   */\n              mstore\n                /* \"#utility.yul\":3352:3430   */\n              tag_161\n                /* \"#utility.yul\":3425:3429   */\n              dup2\n                /* \"#utility.yul\":3416:3422   */\n              dup9\n                /* \"#utility.yul\":3352:3430   */\n              tag_103\n              jump\t// in\n            tag_161:\n                /* \"#utility.yul\":3344:3430   */\n              swap1\n              pop\n                /* \"#utility.yul\":3440:3512   */\n              tag_162\n                /* \"#utility.yul\":3508:3510   */\n              0x20\n                /* \"#utility.yul\":3497:3506   */\n              dup4\n                /* \"#utility.yul\":3493:3511   */\n              add\n                /* \"#utility.yul\":3484:3490   */\n              dup8\n                /* \"#utility.yul\":3440:3512   */\n              tag_104\n              jump\t// in\n            tag_162:\n                /* \"#utility.yul\":3522:3594   */\n              tag_163\n                /* \"#utility.yul\":3590:3592   */\n              0x40\n                /* \"#utility.yul\":3579:3588   */\n              dup4\n                /* \"#utility.yul\":3575:3593   */\n              add\n                /* \"#utility.yul\":3566:3572   */\n              dup7\n                /* \"#utility.yul\":3522:3594   */\n              tag_98\n              jump\t// in\n            tag_163:\n                /* \"#utility.yul\":3604:3670   */\n              tag_164\n                /* \"#utility.yul\":3666:3668   */\n              0x60\n                /* \"#utility.yul\":3655:3664   */\n              dup4\n                /* \"#utility.yul\":3651:3669   */\n              add\n                /* \"#utility.yul\":3642:3648   */\n              dup6\n                /* \"#utility.yul\":3604:3670   */\n              tag_106\n              jump\t// in\n            tag_164:\n                /* \"#utility.yul\":3680:3753   */\n              tag_165\n                /* \"#utility.yul\":3748:3751   */\n              0x80\n                /* \"#utility.yul\":3737:3746   */\n              dup4\n                /* \"#utility.yul\":3733:3752   */\n              add\n                /* \"#utility.yul\":3724:3730   */\n              dup5\n                /* \"#utility.yul\":3680:3753   */\n              tag_104\n              jump\t// in\n            tag_165:\n                /* \"#utility.yul\":3017:3760   */\n              swap7\n              swap6\n              pop\n              pop\n              pop\n              pop\n              pop\n              pop\n              jump\t// out\n                /* \"#utility.yul\":3766:3883   */\n            tag_107:\n                /* \"#utility.yul\":3875:3876   */\n              0x00\n                /* \"#utility.yul\":3872:3873   */\n              dup1\n                /* \"#utility.yul\":3865:3877   */\n              revert\n                /* \"#utility.yul\":3889:4006   */\n            tag_108:\n                /* \"#utility.yul\":3998:3999   */\n              0x00\n                /* \"#utility.yul\":3995:3996   */\n              dup1\n                /* \"#utility.yul\":3988:4000   */\n              revert\n                /* \"#utility.yul\":4012:4192   */\n            tag_109:\n                /* \"#utility.yul\":4060:4137   */\n              0x4e487b7100000000000000000000000000000000000000000000000000000000\n                /* \"#utility.yul\":4057:4058   */\n              0x00\n                /* \"#utility.yul\":4050:4138   */\n              mstore\n                /* \"#utility.yul\":4157:4161   */\n              0x41\n                /* \"#utility.yul\":4154:4155   */\n              0x04\n                /* \"#utility.yul\":4147:4162   */\n              mstore\n                /* \"#utility.yul\":4181:4185   */\n              0x24\n                /* \"#utility.yul\":4178:4179   */\n              0x00\n                /* \"#utility.yul\":4171:4186   */\n              revert\n                /* \"#utility.yul\":4198:4479   */\n            tag_110:\n                /* \"#utility.yul\":4281:4308   */\n              tag_170\n                /* \"#utility.yul\":4303:4307   */\n              dup3\n                /* \"#utility.yul\":4281:4308   */\n              tag_102\n              jump\t// in\n            tag_170:\n                /* \"#utility.yul\":4273:4279   */\n              dup2\n                /* \"#utility.yul\":4269:4309   */\n              add\n                /* \"#utility.yul\":4411:4417   */\n              dup2\n                /* \"#utility.yul\":4399:4409   */\n              dup2\n                /* \"#utility.yul\":4396:4418   */\n              lt\n                /* \"#utility.yul\":4375:4393   */\n              0xffffffffffffffff\n                /* \"#utility.yul\":4363:4373   */\n              dup3\n                /* \"#utility.yul\":4360:4394   */\n              gt\n                /* \"#utility.yul\":4357:4419   */\n              or\n                /* \"#utility.yul\":4354:4442   */\n              iszero\n              tag_171\n              jumpi\n                /* \"#utility.yul\":4422:4440   */\n              tag_172\n              tag_109\n              jump\t// in\n            tag_172:\n                /* \"#utility.yul\":4354:4442   */\n            tag_171:\n                /* \"#utility.yul\":4462:4472   */\n              dup1\n                /* \"#utility.yul\":4458:4460   */\n              0x40\n                /* \"#utility.yul\":4451:4473   */\n              mstore\n                /* \"#utility.yul\":4241:4479   */\n              pop\n                /* \"#utility.yul\":4198:4479   */\n              pop\n              pop\n              jump\t// out\n                /* \"#utility.yul\":4485:4614   */\n            tag_111:\n                /* \"#utility.yul\":4519:4525   */\n              0x00\n                /* \"#utility.yul\":4546:4566   */\n              tag_174\n              tag_90\n              jump\t// in\n            tag_174:\n                /* \"#utility.yul\":4536:4566   */\n              swap1\n              pop\n                /* \"#utility.yul\":4575:4608   */\n              tag_175\n                /* \"#utility.yul\":4603:4607   */\n              dup3\n                /* \"#utility.yul\":4595:4601   */\n              dup3\n                /* \"#utility.yul\":4575:4608   */\n              tag_110\n              jump\t// in\n            tag_175:\n                /* \"#utility.yul\":4485:4614   */\n              swap2\n              swap1\n              pop\n              jump\t// out\n                /* \"#utility.yul\":4620:4928   */\n            tag_112:\n                /* \"#utility.yul\":4682:4686   */\n              0x00\n                /* \"#utility.yul\":4772:4790   */\n              0xffffffffffffffff\n                /* \"#utility.yul\":4764:4770   */\n              dup3\n                /* \"#utility.yul\":4761:4791   */\n              gt\n                /* \"#utility.yul\":4758:4814   */\n              iszero\n              tag_177\n              jumpi\n                /* \"#utility.yul\":4794:4812   */\n              tag_178\n              tag_109\n              jump\t// in\n            tag_178:\n                /* \"#utility.yul\":4758:4814   */\n            tag_177:\n                /* \"#utility.yul\":4832:4861   */\n              tag_179\n                /* \"#utility.yul\":4854:4860   */\n              dup3\n                /* \"#utility.yul\":4832:4861   */\n              tag_102\n              jump\t// in\n            tag_179:\n                /* \"#utility.yul\":4824:4861   */\n              swap1\n              pop\n                /* \"#utility.yul\":4916:4920   */\n              0x20\n                /* \"#utility.yul\":4910:4914   */\n              dup2\n                /* \"#utility.yul\":4906:4921   */\n              add\n                /* \"#utility.yul\":4898:4921   */\n              swap1\n              pop\n                /* \"#utility.yul\":4620:4928   */\n              swap2\n              swap1\n              pop\n              jump\t// out\n                /* \"#utility.yul\":4934:5088   */\n            tag_113:\n                /* \"#utility.yul\":5018:5024   */\n              dup3\n                /* \"#utility.yul\":5013:5016   */\n              dup2\n                /* \"#utility.yul\":5008:5011   */\n              dup4\n                /* \"#utility.yul\":4995:5025   */\n              calldatacopy\n                /* \"#utility.yul\":5080:5081   */\n              0x00\n                /* \"#utility.yul\":5071:5077   */\n              dup4\n                /* \"#utility.yul\":5066:5069   */\n              dup4\n                /* \"#utility.yul\":5062:5078   */\n              add\n                /* \"#utility.yul\":5055:5082   */\n              mstore\n                /* \"#utility.yul\":4934:5088   */\n              pop\n              pop\n              pop\n              jump\t// out\n                /* \"#utility.yul\":5094:5506   */\n            tag_114:\n                /* \"#utility.yul\":5172:5177   */\n              0x00\n                /* \"#utility.yul\":5197:5263   */\n              tag_182\n                /* \"#utility.yul\":5213:5262   */\n              tag_183\n                /* \"#utility.yul\":5255:5261   */\n              dup5\n                /* \"#utility.yul\":5213:5262   */\n              tag_112\n              jump\t// in\n            tag_183:\n                /* \"#utility.yul\":5197:5263   */\n              tag_111\n              jump\t// in\n            tag_182:\n                /* \"#utility.yul\":5188:5263   */\n              swap1\n              pop\n                /* \"#utility.yul\":5286:5292   */\n              dup3\n                /* \"#utility.yul\":5279:5284   */\n              dup2\n                /* \"#utility.yul\":5272:5293   */\n              mstore\n                /* \"#utility.yul\":5324:5328   */\n              0x20\n                /* \"#utility.yul\":5317:5322   */\n              dup2\n                /* \"#utility.yul\":5313:5329   */\n              add\n                /* \"#utility.yul\":5362:5365   */\n              dup5\n                /* \"#utility.yul\":5353:5359   */\n              dup5\n                /* \"#utility.yul\":5348:5351   */\n              dup5\n                /* \"#utility.yul\":5344:5360   */\n              add\n                /* \"#utility.yul\":5341:5366   */\n              gt\n                /* \"#utility.yul\":5338:5450   */\n              iszero\n              tag_184\n              jumpi\n                /* \"#utility.yul\":5369:5448   */\n              tag_185\n              tag_108\n              jump\t// in\n            tag_185:\n                /* \"#utility.yul\":5338:5450   */\n            tag_184:\n                /* \"#utility.yul\":5459:5500   */\n              tag_186\n                /* \"#utility.yul\":5493:5499   */\n              dup5\n                /* \"#utility.yul\":5488:5491   */\n              dup3\n                /* \"#utility.yul\":5483:5486   */\n              dup6\n                /* \"#utility.yul\":5459:5500   */\n              tag_113\n              jump\t// in\n            tag_186:\n                /* \"#utility.yul\":5178:5506   */\n              pop\n                /* \"#utility.yul\":5094:5506   */\n              swap4\n              swap3\n              pop\n              pop\n              pop\n              jump\t// out\n                /* \"#utility.yul\":5526:5866   */\n            tag_115:\n                /* \"#utility.yul\":5582:5587   */\n              0x00\n                /* \"#utility.yul\":5631:5634   */\n              dup3\n                /* \"#utility.yul\":5624:5628   */\n              0x1f\n                /* \"#utility.yul\":5616:5622   */\n              dup4\n                /* \"#utility.yul\":5612:5629   */\n              add\n                /* \"#utility.yul\":5608:5635   */\n              slt\n                /* \"#utility.yul\":5598:5720   */\n              tag_188\n              jumpi\n                /* \"#utility.yul\":5639:5718   */\n              tag_189\n              tag_107\n              jump\t// in\n            tag_189:\n                /* \"#utility.yul\":5598:5720   */\n            tag_188:\n                /* \"#utility.yul\":5756:5762   */\n              dup2\n                /* \"#utility.yul\":5743:5763   */\n              calldataload\n                /* \"#utility.yul\":5781:5860   */\n              tag_190\n                /* \"#utility.yul\":5856:5859   */\n              dup5\n                /* \"#utility.yul\":5848:5854   */\n              dup3\n                /* \"#utility.yul\":5841:5845   */\n              0x20\n                /* \"#utility.yul\":5833:5839   */\n              dup7\n                /* \"#utility.yul\":5829:5846   */\n              add\n                /* \"#utility.yul\":5781:5860   */\n              tag_114\n              jump\t// in\n            tag_190:\n                /* \"#utility.yul\":5772:5860   */\n              swap2\n              pop\n                /* \"#utility.yul\":5588:5866   */\n              pop\n                /* \"#utility.yul\":5526:5866   */\n              swap3\n              swap2\n              pop\n              pop\n              jump\t// out\n                /* \"#utility.yul\":5872:5994   */\n            tag_116:\n                /* \"#utility.yul\":5945:5969   */\n              tag_192\n                /* \"#utility.yul\":5963:5968   */\n              dup2\n                /* \"#utility.yul\":5945:5969   */\n              tag_97\n              jump\t// in\n            tag_192:\n                /* \"#utility.yul\":5938:5943   */\n              dup2\n                /* \"#utility.yul\":5935:5970   */\n              eq\n                /* \"#utility.yul\":5925:5988   */\n              tag_193\n              jumpi\n                /* \"#utility.yul\":5984:5985   */\n              0x00\n                /* \"#utility.yul\":5981:5982   */\n              dup1\n                /* \"#utility.yul\":5974:5986   */\n              revert\n                /* \"#utility.yul\":5925:5988   */\n            tag_193:\n                /* \"#utility.yul\":5872:5994   */\n              pop\n              jump\t// out\n                /* \"#utility.yul\":6000:6139   */\n            tag_117:\n                /* \"#utility.yul\":6046:6051   */\n              0x00\n                /* \"#utility.yul\":6084:6090   */\n              dup2\n                /* \"#utility.yul\":6071:6091   */\n              calldataload\n                /* \"#utility.yul\":6062:6091   */\n              swap1\n              pop\n                /* \"#utility.yul\":6100:6133   */\n              tag_195\n                /* \"#utility.yul\":6127:6132   */\n              dup2\n                /* \"#utility.yul\":6100:6133   */\n              tag_116\n              jump\t// in\n            tag_195:\n                /* \"#utility.yul\":6000:6139   */\n              swap3\n              swap2\n              pop\n              pop\n              jump\t// out\n                /* \"#utility.yul\":6145:6944   */\n            tag_28:\n                /* \"#utility.yul\":6232:6238   */\n              0x00\n                /* \"#utility.yul\":6240:6246   */\n              dup1\n                /* \"#utility.yul\":6248:6254   */\n              0x00\n                /* \"#utility.yul\":6297:6299   */\n              0x60\n                /* \"#utility.yul\":6285:6294   */\n              dup5\n                /* \"#utility.yul\":6276:6283   */\n              dup7\n                /* \"#utility.yul\":6272:6295   */\n              sub\n                /* \"#utility.yul\":6268:6300   */\n              slt\n                /* \"#utility.yul\":6265:6384   */\n              iszero\n              tag_197\n              jumpi\n                /* \"#utility.yul\":6303:6382   */\n              tag_198\n              tag_91\n              jump\t// in\n            tag_198:\n                /* \"#utility.yul\":6265:6384   */\n            tag_197:\n                /* \"#utility.yul\":6451:6452   */\n              0x00\n                /* \"#utility.yul\":6440:6449   */\n              dup5\n                /* \"#utility.yul\":6436:6453   */\n              add\n                /* \"#utility.yul\":6423:6454   */\n              calldataload\n                /* \"#utility.yul\":6481:6499   */\n              0xffffffffffffffff\n                /* \"#utility.yul\":6473:6479   */\n              dup2\n                /* \"#utility.yul\":6470:6500   */\n              gt\n                /* \"#utility.yul\":6467:6584   */\n              iszero\n              tag_199\n              jumpi\n                /* \"#utility.yul\":6503:6582   */\n              tag_200\n              tag_92\n              jump\t// in\n            tag_200:\n                /* \"#utility.yul\":6467:6584   */\n            tag_199:\n                /* \"#utility.yul\":6608:6671   */\n              tag_201\n                /* \"#utility.yul\":6663:6670   */\n              dup7\n                /* \"#utility.yul\":6654:6660   */\n              dup3\n                /* \"#utility.yul\":6643:6652   */\n              dup8\n                /* \"#utility.yul\":6639:6661   */\n              add\n                /* \"#utility.yul\":6608:6671   */\n              tag_115\n              jump\t// in\n            tag_201:\n                /* \"#utility.yul\":6598:6671   */\n              swap4\n              pop\n                /* \"#utility.yul\":6394:6681   */\n              pop\n                /* \"#utility.yul\":6720:6722   */\n              0x20\n                /* \"#utility.yul\":6746:6799   */\n              tag_202\n                /* \"#utility.yul\":6791:6798   */\n              dup7\n                /* \"#utility.yul\":6782:6788   */\n              dup3\n                /* \"#utility.yul\":6771:6780   */\n              dup8\n                /* \"#utility.yul\":6767:6789   */\n              add\n                /* \"#utility.yul\":6746:6799   */\n              tag_95\n              jump\t// in\n            tag_202:\n                /* \"#utility.yul\":6736:6799   */\n              swap3\n              pop\n                /* \"#utility.yul\":6691:6809   */\n              pop\n                /* \"#utility.yul\":6848:6850   */\n              0x40\n                /* \"#utility.yul\":6874:6927   */\n              tag_203\n                /* \"#utility.yul\":6919:6926   */\n              dup7\n                /* \"#utility.yul\":6910:6916   */\n              dup3\n                /* \"#utility.yul\":6899:6908   */\n              dup8\n                /* \"#utility.yul\":6895:6917   */\n              add\n                /* \"#utility.yul\":6874:6927   */\n              tag_117\n              jump\t// in\n            tag_203:\n                /* \"#utility.yul\":6864:6927   */\n              swap2\n              pop\n                /* \"#utility.yul\":6819:6937   */\n              pop\n                /* \"#utility.yul\":6145:6944   */\n              swap3\n              pop\n              swap3\n              pop\n              swap3\n              jump\t// out\n                /* \"#utility.yul\":6950:7172   */\n            tag_34:\n                /* \"#utility.yul\":7043:7047   */\n              0x00\n                /* \"#utility.yul\":7081:7083   */\n              0x20\n                /* \"#utility.yul\":7070:7079   */\n              dup3\n                /* \"#utility.yul\":7066:7084   */\n              add\n                /* \"#utility.yul\":7058:7084   */\n              swap1\n              pop\n                /* \"#utility.yul\":7094:7165   */\n              tag_205\n                /* \"#utility.yul\":7162:7163   */\n              0x00\n                /* \"#utility.yul\":7151:7160   */\n              dup4\n                /* \"#utility.yul\":7147:7164   */\n              add\n                /* \"#utility.yul\":7138:7144   */\n              dup5\n                /* \"#utility.yul\":7094:7165   */\n              tag_104\n              jump\t// in\n            tag_205:\n                /* \"#utility.yul\":6950:7172   */\n              swap3\n              swap2\n              pop\n              pop\n              jump\t// out\n                /* \"#utility.yul\":7178:7358   */\n            tag_46:\n                /* \"#utility.yul\":7226:7303   */\n              0x4e487b7100000000000000000000000000000000000000000000000000000000\n                /* \"#utility.yul\":7223:7224   */\n              0x00\n                /* \"#utility.yul\":7216:7304   */\n              mstore\n                /* \"#utility.yul\":7323:7327   */\n              0x32\n                /* \"#utility.yul\":7320:7321   */\n              0x04\n                /* \"#utility.yul\":7313:7328   */\n              mstore\n                /* \"#utility.yul\":7347:7351   */\n              0x24\n                /* \"#utility.yul\":7344:7345   */\n              0x00\n                /* \"#utility.yul\":7337:7352   */\n              revert\n                /* \"#utility.yul\":7364:7544   */\n            tag_118:\n                /* \"#utility.yul\":7412:7489   */\n              0x4e487b7100000000000000000000000000000000000000000000000000000000\n                /* \"#utility.yul\":7409:7410   */\n              0x00\n                /* \"#utility.yul\":7402:7490   */\n              mstore\n                /* \"#utility.yul\":7509:7513   */\n              0x12\n                /* \"#utility.yul\":7506:7507   */\n              0x04\n                /* \"#utility.yul\":7499:7514   */\n              mstore\n                /* \"#utility.yul\":7533:7537   */\n              0x24\n                /* \"#utility.yul\":7530:7531   */\n              0x00\n                /* \"#utility.yul\":7523:7538   */\n              revert\n                /* \"#utility.yul\":7550:7730   */\n            tag_119:\n                /* \"#utility.yul\":7598:7675   */\n              0x4e487b7100000000000000000000000000000000000000000000000000000000\n                /* \"#utility.yul\":7595:7596   */\n              0x00\n                /* \"#utility.yul\":7588:7676   */\n              mstore\n                /* \"#utility.yul\":7695:7699   */\n              0x11\n                /* \"#utility.yul\":7692:7693   */\n              0x04\n                /* \"#utility.yul\":7685:7700   */\n              mstore\n                /* \"#utility.yul\":7719:7723   */\n              0x24\n                /* \"#utility.yul\":7716:7717   */\n              0x00\n                /* \"#utility.yul\":7709:7724   */\n              revert\n                /* \"#utility.yul\":7736:7921   */\n            tag_49:\n                /* \"#utility.yul\":7776:7777   */\n              0x00\n                /* \"#utility.yul\":7793:7813   */\n              tag_210\n                /* \"#utility.yul\":7811:7812   */\n              dup3\n                /* \"#utility.yul\":7793:7813   */\n              tag_93\n              jump\t// in\n            tag_210:\n                /* \"#utility.yul\":7788:7813   */\n              swap2\n              pop\n                /* \"#utility.yul\":7827:7847   */\n              tag_211\n                /* \"#utility.yul\":7845:7846   */\n              dup4\n                /* \"#utility.yul\":7827:7847   */\n              tag_93\n              jump\t// in\n            tag_211:\n                /* \"#utility.yul\":7822:7847   */\n              swap3\n              pop\n                /* \"#utility.yul\":7866:7867   */\n              dup3\n                /* \"#utility.yul\":7856:7891   */\n              tag_212\n              jumpi\n                /* \"#utility.yul\":7871:7889   */\n              tag_213\n              tag_118\n              jump\t// in\n            tag_213:\n                /* \"#utility.yul\":7856:7891   */\n            tag_212:\n                /* \"#utility.yul\":7913:7914   */\n              dup3\n                /* \"#utility.yul\":7910:7911   */\n              dup3\n                /* \"#utility.yul\":7906:7915   */\n              div\n                /* \"#utility.yul\":7901:7915   */\n              swap1\n              pop\n                /* \"#utility.yul\":7736:7921   */\n              swap3\n              swap2\n              pop\n              pop\n              jump\t// out\n                /* \"#utility.yul\":7927:8107   */\n            tag_120:\n                /* \"#utility.yul\":7975:8052   */\n              0x4e487b7100000000000000000000000000000000000000000000000000000000\n                /* \"#utility.yul\":7972:7973   */\n              0x00\n                /* \"#utility.yul\":7965:8053   */\n              mstore\n                /* \"#utility.yul\":8072:8076   */\n              0x22\n                /* \"#utility.yul\":8069:8070   */\n              0x04\n                /* \"#utility.yul\":8062:8077   */\n              mstore\n                /* \"#utility.yul\":8096:8100   */\n              0x24\n                /* \"#utility.yul\":8093:8094   */\n              0x00\n                /* \"#utility.yul\":8086:8101   */\n              revert\n                /* \"#utility.yul\":8113:8433   */\n            tag_57:\n                /* \"#utility.yul\":8157:8163   */\n              0x00\n                /* \"#utility.yul\":8194:8195   */\n              0x02\n                /* \"#utility.yul\":8188:8192   */\n              dup3\n                /* \"#utility.yul\":8184:8196   */\n              div\n                /* \"#utility.yul\":8174:8196   */\n              swap1\n              pop\n                /* \"#utility.yul\":8241:8242   */\n              0x01\n                /* \"#utility.yul\":8235:8239   */\n              dup3\n                /* \"#utility.yul\":8231:8243   */\n              and\n                /* \"#utility.yul\":8262:8280   */\n              dup1\n                /* \"#utility.yul\":8252:8333   */\n              tag_216\n              jumpi\n                /* \"#utility.yul\":8318:8322   */\n              0x7f\n                /* \"#utility.yul\":8310:8316   */\n              dup3\n                /* \"#utility.yul\":8306:8323   */\n              and\n                /* \"#utility.yul\":8296:8323   */\n              swap2\n              pop\n                /* \"#utility.yul\":8252:8333   */\n            tag_216:\n                /* \"#utility.yul\":8380:8382   */\n              0x20\n                /* \"#utility.yul\":8372:8378   */\n              dup3\n                /* \"#utility.yul\":8369:8383   */\n              lt\n                /* \"#utility.yul\":8349:8367   */\n              dup2\n                /* \"#utility.yul\":8346:8384   */\n              sub\n                /* \"#utility.yul\":8343:8427   */\n              tag_217\n              jumpi\n                /* \"#utility.yul\":8399:8417   */\n              tag_218\n              tag_120\n              jump\t// in\n            tag_218:\n                /* \"#utility.yul\":8343:8427   */\n            tag_217:\n                /* \"#utility.yul\":8164:8433   */\n              pop\n                /* \"#utility.yul\":8113:8433   */\n              swap2\n              swap1\n              pop\n              jump\t// out\n                /* \"#utility.yul\":8439:8672   */\n            tag_72:\n                /* \"#utility.yul\":8478:8481   */\n              0x00\n                /* \"#utility.yul\":8501:8525   */\n              tag_220\n                /* \"#utility.yul\":8519:8524   */\n              dup3\n                /* \"#utility.yul\":8501:8525   */\n              tag_93\n              jump\t// in\n            tag_220:\n                /* \"#utility.yul\":8492:8525   */\n              swap2\n              pop\n                /* \"#utility.yul\":8547:8613   */\n              0xffffffffffffffffffffffffffffffffffffffffffffffffffffffffffffffff\n                /* \"#utility.yul\":8540:8545   */\n              dup3\n                /* \"#utility.yul\":8537:8614   */\n              sub\n                /* \"#utility.yul\":8534:8637   */\n              tag_221\n              jumpi\n                /* \"#utility.yul\":8617:8635   */\n              tag_222\n              tag_119\n              jump\t// in\n            tag_222:\n                /* \"#utility.yul\":8534:8637   */\n            tag_221:\n                /* \"#utility.yul\":8664:8665   */\n              0x01\n                /* \"#utility.yul\":8657:8662   */\n              dup3\n                /* \"#utility.yul\":8653:8666   */\n              add\n                /* \"#utility.yul\":8646:8666   */\n              swap1\n              pop\n                /* \"#utility.yul\":8439:8672   */\n              swap2\n              swap1\n              pop\n              jump\t// out\n\n            auxdata: 0xa2646970667358221220671dbc9bf7b7ef5b80457fb46103c2271107cc77c98f4e163f2735f5ed12267f64736f6c634300080d0033\n        }\n    }\n\n    auxdata: 0xa2646970667358221220acd19d9bb68e4b24652ec5c50ae3338a643d039c4a7e3e10aca70d52bf1e331364736f6c634300080d0033\n}\n","bytecode":{"linkReferences":{},"object":"608060405234801561001057600080fd5b50611266806100206000396000f3fe608060405234801561001057600080fd5b50600436106100365760003560e01c80634acb9d4f1461003b578063a3303a7514610059575b600080fd5b610043610075565b60405161005091906102a1565b60405180910390f35b610073600480360381019061006e91906102fe565b610103565b005b606060008054806020026020016040519081016040528092919081815260200182805480156100f957602002820191906000526020600020905b8160009054906101000a900473ffffffffffffffffffffffffffffffffffffffff1673ffffffffffffffffffffffffffffffffffffffff16815260200190600101908083116100af575b5050505050905090565b60008133604051610113906101a4565b61011e929190610349565b604051809103906000f08015801561013a573d6000803e3d6000fd5b5090506000819080600181540180825580915050600190039060005260206000200160009091909190916101000a81548173ffffffffffffffffffffffffffffffffffffffff021916908373ffffffffffffffffffffffffffffffffffffffff1602179055505050565b610ebe8061037383390190565b600081519050919050565b600082825260208201905092915050565b6000819050602082019050919050565b600073ffffffffffffffffffffffffffffffffffffffff82169050919050565b6000610208826101dd565b9050919050565b610218816101fd565b82525050565b600061022a838361020f565b60208301905092915050565b6000602082019050919050565b600061024e826101b1565b61025881856101bc565b9350610263836101cd565b8060005b8381101561029457815161027b888261021e565b975061028683610236565b925050600181019050610267565b5085935050505092915050565b600060208201905081810360008301526102bb8184610243565b905092915050565b600080fd5b6000819050919050565b6102db816102c8565b81146102e657600080fd5b50565b6000813590506102f8816102d2565b92915050565b600060208284031215610314576103136102c3565b5b6000610322848285016102e9565b91505092915050565b610334816102c8565b82525050565b610343816101fd565b82525050565b600060408201905061035e600083018561032b565b61036b602083018461033a565b939250505056fe60806040523480156200001157600080fd5b5060405162000ebe38038062000ebe83398181016040528101906200003791906200012b565b806000806101000a81548173ffffffffffffffffffffffffffffffffffffffff021916908373ffffffffffffffffffffffffffffffffffffffff16021790555081600181905550505062000172565b600080fd5b6000819050919050565b620000a0816200008b565b8114620000ac57600080fd5b50565b600081519050620000c08162000095565b92915050565b600073ffffffffffffffffffffffffffffffffffffffff82169050919050565b6000620000f382620000c6565b9050919050565b6200010581620000e6565b81146200011157600080fd5b50565b6000815190506200012581620000fa565b92915050565b6000806040838503121562000145576200014462000086565b5b60006200015585828601620000af565b9250506020620001688582860162000114565b9150509250929050565b610d3c80620001826000396000f3fe6080604052600436106100705760003560e01c80638a9cfd551161004e5780638a9cfd551461010a578063937e09b114610126578063d7bb99ba14610151578063d7d1bbdb1461015b57610070565b80630344100614610075578063481c6a751461009e57806381d12c58146100c9575b600080fd5b34801561008157600080fd5b5061009c6004803603810190610097919061080f565b610184565b005b3480156100aa57600080fd5b506100b36102cc565b6040516100c0919061087d565b60405180910390f35b3480156100d557600080fd5b506100f060048036038101906100eb919061080f565b6102f0565b60405161010195949392919061095b565b60405180910390f35b610124600480360381019061011f9190610b16565b6103eb565b005b34801561013257600080fd5b5061013b61054f565b6040516101489190610b85565b60405180910390f35b610159610555565b005b34801561016757600080fd5b50610182600480360381019061017d919061080f565b6105d5565b005b60008054906101000a900473ffffffffffffffffffffffffffffffffffffffff1673ffffffffffffffffffffffffffffffffffffffff163373ffffffffffffffffffffffffffffffffffffffff16146101dc57600080fd5b6000600482815481106101f2576101f1610ba0565b5b9060005260206000209060050201905060026003546102119190610c2d565b81600401541161022057600080fd5b8060020160149054906101000a900460ff161561023c57600080fd5b8060020160009054906101000a900473ffffffffffffffffffffffffffffffffffffffff1673ffffffffffffffffffffffffffffffffffffffff166108fc82600101549081150290604051600060405180830381858888f193505050501580156102aa573d6000803e3d6000fd5b5060018160020160146101000a81548160ff0219169083151502179055505050565b60008054906101000a900473ffffffffffffffffffffffffffffffffffffffff1681565b6004818154811061030057600080fd5b906000526020600020906005020160009150905080600001805461032390610c8d565b80601f016020809104026020016040519081016040528092919081815260200182805461034f90610c8d565b801561039c5780601f106103715761010080835404028352916020019161039c565b820191906000526020600020905b81548152906001019060200180831161037f57829003601f168201915b5050505050908060010154908060020160009054906101000a900473ffffffffffffffffffffffffffffffffffffffff16908060020160149054906101000a900460ff16908060040154905085565b60008054906101000a900473ffffffffffffffffffffffffffffffffffffffff1673ffffffffffffffffffffffffffffffffffffffff163373ffffffffffffffffffffffffffffffffffffffff161461044357600080fd5b600260003373ffffffffffffffffffffffffffffffffffffffff1673ffffffffffffffffffffffffffffffffffffffff16815260200190815260200160002060009054906101000a900460ff1661049957600080fd5b600060046001816001815401808255809150500390600052602060002090600502019050838160000190805190602001906104d5929190610722565b50828160010181905550818160020160006101000a81548173ffffffffffffffffffffffffffffffffffffffff021916908373ffffffffffffffffffffffffffffffffffffffff16021790555060008160020160146101000a81548160ff0219169083151502179055506000816004018190555050505050565b60015481565b600154341161056357600080fd5b6001600260003373ffffffffffffffffffffffffffffffffffffffff1673ffffffffffffffffffffffffffffffffffffffff16815260200190815260200160002060006101000a81548160ff021916908315150217905550600360008154809291906105ce90610cbe565b9190505550565b600260003373ffffffffffffffffffffffffffffffffffffffff1673ffffffffffffffffffffffffffffffffffffffff16815260200190815260200160002060009054906101000a900460ff1661062b57600080fd5b60006004828154811061064157610640610ba0565b5b906000526020600020906005020190508060030160003373ffffffffffffffffffffffffffffffffffffffff1673ffffffffffffffffffffffffffffffffffffffff16815260200190815260200160002060009054906101000a900460ff16156106aa57600080fd5b60018160030160003373ffffffffffffffffffffffffffffffffffffffff1673ffffffffffffffffffffffffffffffffffffffff16815260200190815260200160002060006101000a81548160ff02191690831515021790555080600401600081548092919061071990610cbe565b91905055505050565b82805461072e90610c8d565b90600052602060002090601f0160209004810192826107505760008555610797565b82601f1061076957805160ff1916838001178555610797565b82800160010185558215610797579182015b8281111561079657825182559160200191906001019061077b565b5b5090506107a491906107a8565b5090565b5b808211156107c15760008160009055506001016107a9565b5090565b6000604051905090565b600080fd5b600080fd5b6000819050919050565b6107ec816107d9565b81146107f757600080fd5b50565b600081359050610809816107e3565b92915050565b600060208284031215610825576108246107cf565b5b6000610833848285016107fa565b91505092915050565b600073ffffffffffffffffffffffffffffffffffffffff82169050919050565b60006108678261083c565b9050919050565b6108778161085c565b82525050565b6000602082019050610892600083018461086e565b92915050565b600081519050919050565b600082825260208201905092915050565b60005b838110156108d25780820151818401526020810190506108b7565b838111156108e1576000848401525b50505050565b6000601f19601f8301169050919050565b600061090382610898565b61090d81856108a3565b935061091d8185602086016108b4565b610926816108e7565b840191505092915050565b61093a816107d9565b82525050565b60008115159050919050565b61095581610940565b82525050565b600060a082019050818103600083015261097581886108f8565b90506109846020830187610931565b610991604083018661086e565b61099e606083018561094c565b6109ab6080830184610931565b9695505050505050565b600080fd5b600080fd5b7f4e487b7100000000000000000000000000000000000000000000000000000000600052604160045260246000fd5b6109f7826108e7565b810181811067ffffffffffffffff82111715610a1657610a156109bf565b5b80604052505050565b6000610a296107c5565b9050610a3582826109ee565b919050565b600067ffffffffffffffff821115610a5557610a546109bf565b5b610a5e826108e7565b9050602081019050919050565b82818337600083830152505050565b6000610a8d610a8884610a3a565b610a1f565b905082815260208101848484011115610aa957610aa86109ba565b5b610ab4848285610a6b565b509392505050565b600082601f830112610ad157610ad06109b5565b5b8135610ae1848260208601610a7a565b91505092915050565b610af38161085c565b8114610afe57600080fd5b50565b600081359050610b1081610aea565b92915050565b600080600060608486031215610b2f57610b2e6107cf565b5b600084013567ffffffffffffffff811115610b4d57610b4c6107d4565b5b610b5986828701610abc565b9350506020610b6a868287016107fa565b9250506040610b7b86828701610b01565b9150509250925092565b6000602082019050610b9a6000830184610931565b92915050565b7f4e487b7100000000000000000000000000000000000000000000000000000000600052603260045260246000fd5b7f4e487b7100000000000000000000000000000000000000000000000000000000600052601260045260246000fd5b7f4e487b7100000000000000000000000000000000000000000000000000000000600052601160045260246000fd5b6000610c38826107d9565b9150610c43836107d9565b925082610c5357610c52610bcf565b5b828204905092915050565b7f4e487b7100000000000000000000000000000000000000000000000000000000600052602260045260246000fd5b60006002820490506001821680610ca557607f821691505b602082108103610cb857610cb7610c5e565b5b50919050565b6000610cc9826107d9565b91507fffffffffffffffffffffffffffffffffffffffffffffffffffffffffffffffff8203610cfb57610cfa610bfe565b5b60018201905091905056fea2646970667358221220671dbc9bf7b7ef5b80457fb46103c2271107cc77c98f4e163f2735f5ed12267f64736f6c634300080d0033a2646970667358221220acd19d9bb68e4b24652ec5c50ae3338a643d039c4a7e3e10aca70d52bf1e331364736f6c634300080d0033","opcodes":"PUSH1 0x80 PUSH1 0x40 MSTORE CALLVALUE DUP1 ISZERO PUSH2 0x10 JUMPI PUSH1 0x0 DUP1 REVERT JUMPDEST POP PUSH2 0x1266 DUP1 PUSH2 0x20 PUSH1 0x0 CODECOPY PUSH1 0x0 RETURN INVALID PUSH1 0x80 PUSH1 0x40 MSTORE CALLVALUE DUP1 ISZERO PUSH2 0x10 JUMPI PUSH1 0x0 DUP1 REVERT JUMPDEST POP PUSH1 0x4 CALLDATASIZE LT PUSH2 0x36 JUMPI PUSH1 0x0 CALLDATALOAD PUSH1 0xE0 SHR DUP1 PUSH4 0x4ACB9D4F EQ PUSH2 0x3B JUMPI DUP1 PUSH4 0xA3303A75 EQ PUSH2 0x59 JUMPI JUMPDEST PUSH1 0x0 DUP1 REVERT JUMPDEST PUSH2 0x43 PUSH2 0x75 JUMP JUMPDEST PUSH1 0x40 MLOAD PUSH2 0x50 SWAP2 SWAP1 PUSH2 0x2A1 JUMP JUMPDEST PUSH1 0x40 MLOAD DUP1 SWAP2 SUB SWAP1 RETURN JUMPDEST PUSH2 0x73 PUSH1 0x4 DUP1 CALLDATASIZE SUB DUP2 ADD SWAP1 PUSH2 0x6E SWAP2 SWAP1 PUSH2 0x2FE JUMP JUMPDEST PUSH2 0x103 JUMP JUMPDEST STOP JUMPDEST PUSH1 0x60 PUSH1 0x0 DUP1 SLOAD DUP1 PUSH1 0x20 MUL PUSH1 0x20 ADD PUSH1 0x40 MLOAD SWAP1 DUP2 ADD PUSH1 0x40 MSTORE DUP1 SWAP3 SWAP2 SWAP1 DUP2 DUP2 MSTORE PUSH1 0x20 ADD DUP3 DUP1 SLOAD DUP1 ISZERO PUSH2 0xF9 JUMPI PUSH1 0x20 MUL DUP3 ADD SWAP2 SWAP1 PUSH1 0x0 MSTORE PUSH1 0x20 PUSH1 0x0 KECCAK256 SWAP1 JUMPDEST DUP2 PUSH1 0x0 SWAP1 SLOAD SWAP1 PUSH2 0x100 EXP SWAP1 DIV PUSH20 0xFFFFFFFFFFFFFFFFFFFFFFFFFFFFFFFFFFFFFFFF AND PUSH20 0xFFFFFFFFFFFFFFFFFFFFFFFFFFFFFFFFFFFFFFFF AND DUP2 MSTORE PUSH1 0x20 ADD SWAP1 PUSH1 0x1 ADD SWAP1 DUP1 DUP4 GT PUSH2 0xAF JUMPI JUMPDEST POP POP POP POP POP SWAP1 POP SWAP1 JUMP JUMPDEST PUSH1 0x0 DUP2 CALLER PUSH1 0x40 MLOAD PUSH2 0x113 SWAP1 PUSH2 0x1A4 JUMP JUMPDEST PUSH2 0x11E SWAP3 SWAP2 SWAP1 PUSH2 0x349 JUMP JUMPDEST PUSH1 0x40 MLOAD DUP1 SWAP2 SUB SWAP1 PUSH1 0x0 CREATE DUP1 ISZERO DUP1 ISZERO PUSH2 0x13A JUMPI RETURNDATASIZE PUSH1 0x0 DUP1 RETURNDATACOPY RETURNDATASIZE PUSH1 0x0 REVERT JUMPDEST POP SWAP1 POP PUSH1 0x0 DUP2 SWAP1 DUP1 PUSH1 0x1 DUP2 SLOAD ADD DUP1 DUP3 SSTORE DUP1 SWAP2 POP POP PUSH1 0x1 SWAP1 SUB SWAP1 PUSH1 0x0 MSTORE PUSH1 0x20 PUSH1 0x0 KECCAK256 ADD PUSH1 0x0 SWAP1 SWAP2 SWAP1 SWAP2 SWAP1 SWAP2 PUSH2 0x100 EXP DUP2 SLOAD DUP2 PUSH20 0xFFFFFFFFFFFFFFFFFFFFFFFFFFFFFFFFFFFFFFFF MUL NOT AND SWAP1 DUP4 PUSH20 0xFFFFFFFFFFFFFFFFFFFFFFFFFFFFFFFFFFFFFFFF AND MUL OR SWAP1 SSTORE POP POP POP JUMP JUMPDEST PUSH2 0xEBE DUP1 PUSH2 0x373 DUP4 CODECOPY ADD SWAP1 JUMP JUMPDEST PUSH1 0x0 DUP2 MLOAD SWAP1 POP SWAP2 SWAP1 POP JUMP JUMPDEST PUSH1 0x0 DUP3 DUP3 MSTORE PUSH1 0x20 DUP3 ADD SWAP1 POP SWAP3 SWAP2 POP POP JUMP JUMPDEST PUSH1 0x0 DUP2 SWAP1 POP PUSH1 0x20 DUP3 ADD SWAP1 POP SWAP2 SWAP1 POP JUMP JUMPDEST PUSH1 0x0 PUSH20 0xFFFFFFFFFFFFFFFFFFFFFFFFFFFFFFFFFFFFFFFF DUP3 AND SWAP1 POP SWAP2 SWAP1 POP JUMP JUMPDEST PUSH1 0x0 PUSH2 0x208 DUP3 PUSH2 0x1DD JUMP JUMPDEST SWAP1 POP SWAP2 SWAP1 POP JUMP JUMPDEST PUSH2 0x218 DUP2 PUSH2 0x1FD JUMP JUMPDEST DUP3 MSTORE POP POP JUMP JUMPDEST PUSH1 0x0 PUSH2 0x22A DUP4 DUP4 PUSH2 0x20F JUMP JUMPDEST PUSH1 0x20 DUP4 ADD SWAP1 POP SWAP3 SWAP2 POP POP JUMP JUMPDEST PUSH1 0x0 PUSH1 0x20 DUP3 ADD SWAP1 POP SWAP2 SWAP1 POP JUMP JUMPDEST PUSH1 0x0 PUSH2 0x24E DUP3 PUSH2 0x1B1 JUMP JUMPDEST PUSH2 0x258 DUP2 DUP6 PUSH2 0x1BC JUMP JUMPDEST SWAP4 POP PUSH2 0x263 DUP4 PUSH2 0x1CD JUMP JUMPDEST DUP1 PUSH1 0x0 JUMPDEST DUP4 DUP2 LT ISZERO PUSH2 0x294 JUMPI DUP2 MLOAD PUSH2 0x27B DUP9 DUP3 PUSH2 0x21E JUMP JUMPDEST SWAP8 POP PUSH2 0x286 DUP4 PUSH2 0x236 JUMP JUMPDEST SWAP3 POP POP PUSH1 0x1 DUP2 ADD SWAP1 POP PUSH2 0x267 JUMP JUMPDEST POP DUP6 SWAP4 POP POP POP POP SWAP3 SWAP2 POP POP JUMP JUMPDEST PUSH1 0x0 PUSH1 0x20 DUP3 ADD SWAP1 POP DUP2 DUP2 SUB PUSH1 0x0 DUP4 ADD MSTORE PUSH2 0x2BB DUP2 DUP5 PUSH2 0x243 JUMP JUMPDEST SWAP1 POP SWAP3 SWAP2 POP POP JUMP JUMPDEST PUSH1 0x0 DUP1 REVERT JUMPDEST PUSH1 0x0 DUP2 SWAP1 POP SWAP2 SWAP1 POP JUMP JUMPDEST PUSH2 0x2DB DUP2 PUSH2 0x2C8 JUMP JUMPDEST DUP2 EQ PUSH2 0x2E6 JUMPI PUSH1 0x0 DUP1 REVERT JUMPDEST POP JUMP JUMPDEST PUSH1 0x0 DUP2 CALLDATALOAD SWAP1 POP PUSH2 0x2F8 DUP2 PUSH2 0x2D2 JUMP JUMPDEST SWAP3 SWAP2 POP POP JUMP JUMPDEST PUSH1 0x0 PUSH1 0x20 DUP3 DUP5 SUB SLT ISZERO PUSH2 0x314 JUMPI PUSH2 0x313 PUSH2 0x2C3 JUMP JUMPDEST JUMPDEST PUSH1 0x0 PUSH2 0x322 DUP5 DUP3 DUP6 ADD PUSH2 0x2E9 JUMP JUMPDEST SWAP2 POP POP SWAP3 SWAP2 POP POP JUMP JUMPDEST PUSH2 0x334 DUP2 PUSH2 0x2C8 JUMP JUMPDEST DUP3 MSTORE POP POP JUMP JUMPDEST PUSH2 0x343 DUP2 PUSH2 0x1FD JUMP JUMPDEST DUP3 MSTORE POP POP JUMP JUMPDEST PUSH1 0x0 PUSH1 0x40 DUP3 ADD SWAP1 POP PUSH2 0x35E PUSH1 0x0 DUP4 ADD DUP6 PUSH2 0x32B JUMP JUMPDEST PUSH2 0x36B PUSH1 0x20 DUP4 ADD DUP5 PUSH2 0x33A JUMP JUMPDEST SWAP4 SWAP3 POP POP POP JUMP INVALID PUSH1 0x80 PUSH1 0x40 MSTORE CALLVALUE DUP1 ISZERO PUSH3 0x11 JUMPI PUSH1 0x0 DUP1 REVERT JUMPDEST POP PUSH1 0x40 MLOAD PUSH3 0xEBE CODESIZE SUB DUP1 PUSH3 0xEBE DUP4 CODECOPY DUP2 DUP2 ADD PUSH1 0x40 MSTORE DUP2 ADD SWAP1 PUSH3 0x37 SWAP2 SWAP1 PUSH3 0x12B JUMP JUMPDEST DUP1 PUSH1 0x0 DUP1 PUSH2 0x100 EXP DUP2 SLOAD DUP2 PUSH20 0xFFFFFFFFFFFFFFFFFFFFFFFFFFFFFFFFFFFFFFFF MUL NOT AND SWAP1 DUP4 PUSH20 0xFFFFFFFFFFFFFFFFFFFFFFFFFFFFFFFFFFFFFFFF AND MUL OR SWAP1 SSTORE POP DUP2 PUSH1 0x1 DUP2 SWAP1 SSTORE POP POP POP PUSH3 0x172 JUMP JUMPDEST PUSH1 0x0 DUP1 REVERT JUMPDEST PUSH1 0x0 DUP2 SWAP1 POP SWAP2 SWAP1 POP JUMP JUMPDEST PUSH3 0xA0 DUP2 PUSH3 0x8B JUMP JUMPDEST DUP2 EQ PUSH3 0xAC JUMPI PUSH1 0x0 DUP1 REVERT JUMPDEST POP JUMP JUMPDEST PUSH1 0x0 DUP2 MLOAD SWAP1 POP PUSH3 0xC0 DUP2 PUSH3 0x95 JUMP JUMPDEST SWAP3 SWAP2 POP POP JUMP JUMPDEST PUSH1 0x0 PUSH20 0xFFFFFFFFFFFFFFFFFFFFFFFFFFFFFFFFFFFFFFFF DUP3 AND SWAP1 POP SWAP2 SWAP1 POP JUMP JUMPDEST PUSH1 0x0 PUSH3 0xF3 DUP3 PUSH3 0xC6 JUMP JUMPDEST SWAP1 POP SWAP2 SWAP1 POP JUMP JUMPDEST PUSH3 0x105 DUP2 PUSH3 0xE6 JUMP JUMPDEST DUP2 EQ PUSH3 0x111 JUMPI PUSH1 0x0 DUP1 REVERT JUMPDEST POP JUMP JUMPDEST PUSH1 0x0 DUP2 MLOAD SWAP1 POP PUSH3 0x125 DUP2 PUSH3 0xFA JUMP JUMPDEST SWAP3 SWAP2 POP POP JUMP JUMPDEST PUSH1 0x0 DUP1 PUSH1 0x40 DUP4 DUP6 SUB SLT ISZERO PUSH3 0x145 JUMPI PUSH3 0x144 PUSH3 0x86 JUMP JUMPDEST JUMPDEST PUSH1 0x0 PUSH3 0x155 DUP6 DUP3 DUP7 ADD PUSH3 0xAF JUMP JUMPDEST SWAP3 POP POP PUSH1 0x20 PUSH3 0x168 DUP6 DUP3 DUP7 ADD PUSH3 0x114 JUMP JUMPDEST SWAP2 POP POP SWAP3 POP SWAP3 SWAP1 POP JUMP JUMPDEST PUSH2 0xD3C DUP1 PUSH3 0x182 PUSH1 0x0 CODECOPY PUSH1 0x0 RETURN INVALID PUSH1 0x80 PUSH1 0x40 MSTORE PUSH1 0x4 CALLDATASIZE LT PUSH2 0x70 JUMPI PUSH1 0x0 CALLDATALOAD PUSH1 0xE0 SHR DUP1 PUSH4 0x8A9CFD55 GT PUSH2 0x4E JUMPI DUP1 PUSH4 0x8A9CFD55 EQ PUSH2 0x10A JUMPI DUP1 PUSH4 0x937E09B1 EQ PUSH2 0x126 JUMPI DUP1 PUSH4 0xD7BB99BA EQ PUSH2 0x151 JUMPI DUP1 PUSH4 0xD7D1BBDB EQ PUSH2 0x15B JUMPI PUSH2 0x70 JUMP JUMPDEST DUP1 PUSH4 0x3441006 EQ PUSH2 0x75 JUMPI DUP1 PUSH4 0x481C6A75 EQ PUSH2 0x9E JUMPI DUP1 PUSH4 0x81D12C58 EQ PUSH2 0xC9 JUMPI JUMPDEST PUSH1 0x0 DUP1 REVERT JUMPDEST CALLVALUE DUP1 ISZERO PUSH2 0x81 JUMPI PUSH1 0x0 DUP1 REVERT JUMPDEST POP PUSH2 0x9C PUSH1 0x4 DUP1 CALLDATASIZE SUB DUP2 ADD SWAP1 PUSH2 0x97 SWAP2 SWAP1 PUSH2 0x80F JUMP JUMPDEST PUSH2 0x184 JUMP JUMPDEST STOP JUMPDEST CALLVALUE DUP1 ISZERO PUSH2 0xAA JUMPI PUSH1 0x0 DUP1 REVERT JUMPDEST POP PUSH2 0xB3 PUSH2 0x2CC JUMP JUMPDEST PUSH1 0x40 MLOAD PUSH2 0xC0 SWAP2 SWAP1 PUSH2 0x87D JUMP JUMPDEST PUSH1 0x40 MLOAD DUP1 SWAP2 SUB SWAP1 RETURN JUMPDEST CALLVALUE DUP1 ISZERO PUSH2 0xD5 JUMPI PUSH1 0x0 DUP1 REVERT JUMPDEST POP PUSH2 0xF0 PUSH1 0x4 DUP1 CALLDATASIZE SUB DUP2 ADD SWAP1 PUSH2 0xEB SWAP2 SWAP1 PUSH2 0x80F JUMP JUMPDEST PUSH2 0x2F0 JUMP JUMPDEST PUSH1 0x40 MLOAD PUSH2 0x101 SWAP6 SWAP5 SWAP4 SWAP3 SWAP2 SWAP1 PUSH2 0x95B JUMP JUMPDEST PUSH1 0x40 MLOAD DUP1 SWAP2 SUB SWAP1 RETURN JUMPDEST PUSH2 0x124 PUSH1 0x4 DUP1 CALLDATASIZE SUB DUP2 ADD SWAP1 PUSH2 0x11F SWAP2 SWAP1 PUSH2 0xB16 JUMP JUMPDEST PUSH2 0x3EB JUMP JUMPDEST STOP JUMPDEST CALLVALUE DUP1 ISZERO PUSH2 0x132 JUMPI PUSH1 0x0 DUP1 REVERT JUMPDEST POP PUSH2 0x13B PUSH2 0x54F JUMP JUMPDEST PUSH1 0x40 MLOAD PUSH2 0x148 SWAP2 SWAP1 PUSH2 0xB85 JUMP JUMPDEST PUSH1 0x40 MLOAD DUP1 SWAP2 SUB SWAP1 RETURN JUMPDEST PUSH2 0x159 PUSH2 0x555 JUMP JUMPDEST STOP JUMPDEST CALLVALUE DUP1 ISZERO PUSH2 0x167 JUMPI PUSH1 0x0 DUP1 REVERT JUMPDEST POP PUSH2 0x182 PUSH1 0x4 DUP1 CALLDATASIZE SUB DUP2 ADD SWAP1 PUSH2 0x17D SWAP2 SWAP1 PUSH2 0x80F JUMP JUMPDEST PUSH2 0x5D5 JUMP JUMPDEST STOP JUMPDEST PUSH1 0x0 DUP1 SLOAD SWAP1 PUSH2 0x100 EXP SWAP1 DIV PUSH20 0xFFFFFFFFFFFFFFFFFFFFFFFFFFFFFFFFFFFFFFFF AND PUSH20 0xFFFFFFFFFFFFFFFFFFFFFFFFFFFFFFFFFFFFFFFF AND CALLER PUSH20 0xFFFFFFFFFFFFFFFFFFFFFFFFFFFFFFFFFFFFFFFF AND EQ PUSH2 0x1DC JUMPI PUSH1 0x0 DUP1 REVERT JUMPDEST PUSH1 0x0 PUSH1 0x4 DUP3 DUP2 SLOAD DUP2 LT PUSH2 0x1F2 JUMPI PUSH2 0x1F1 PUSH2 0xBA0 JUMP JUMPDEST JUMPDEST SWAP1 PUSH1 0x0 MSTORE PUSH1 0x20 PUSH1 0x0 KECCAK256 SWAP1 PUSH1 0x5 MUL ADD SWAP1 POP PUSH1 0x2 PUSH1 0x3 SLOAD PUSH2 0x211 SWAP2 SWAP1 PUSH2 0xC2D JUMP JUMPDEST DUP2 PUSH1 0x4 ADD SLOAD GT PUSH2 0x220 JUMPI PUSH1 0x0 DUP1 REVERT JUMPDEST DUP1 PUSH1 0x2 ADD PUSH1 0x14 SWAP1 SLOAD SWAP1 PUSH2 0x100 EXP SWAP1 DIV PUSH1 0xFF AND ISZERO PUSH2 0x23C JUMPI PUSH1 0x0 DUP1 REVERT JUMPDEST DUP1 PUSH1 0x2 ADD PUSH1 0x0 SWAP1 SLOAD SWAP1 PUSH2 0x100 EXP SWAP1 DIV PUSH20 0xFFFFFFFFFFFFFFFFFFFFFFFFFFFFFFFFFFFFFFFF AND PUSH20 0xFFFFFFFFFFFFFFFFFFFFFFFFFFFFFFFFFFFFFFFF AND PUSH2 0x8FC DUP3 PUSH1 0x1 ADD SLOAD SWAP1 DUP2 ISZERO MUL SWAP1 PUSH1 0x40 MLOAD PUSH1 0x0 PUSH1 0x40 MLOAD DUP1 DUP4 SUB DUP2 DUP6 DUP9 DUP9 CALL SWAP4 POP POP POP POP ISZERO DUP1 ISZERO PUSH2 0x2AA JUMPI RETURNDATASIZE PUSH1 0x0 DUP1 RETURNDATACOPY RETURNDATASIZE PUSH1 0x0 REVERT JUMPDEST POP PUSH1 0x1 DUP2 PUSH1 0x2 ADD PUSH1 0x14 PUSH2 0x100 EXP DUP2 SLOAD DUP2 PUSH1 0xFF MUL NOT AND SWAP1 DUP4 ISZERO ISZERO MUL OR SWAP1 SSTORE POP POP POP JUMP JUMPDEST PUSH1 0x0 DUP1 SLOAD SWAP1 PUSH2 0x100 EXP SWAP1 DIV PUSH20 0xFFFFFFFFFFFFFFFFFFFFFFFFFFFFFFFFFFFFFFFF AND DUP2 JUMP JUMPDEST PUSH1 0x4 DUP2 DUP2 SLOAD DUP2 LT PUSH2 0x300 JUMPI PUSH1 0x0 DUP1 REVERT JUMPDEST SWAP1 PUSH1 0x0 MSTORE PUSH1 0x20 PUSH1 0x0 KECCAK256 SWAP1 PUSH1 0x5 MUL ADD PUSH1 0x0 SWAP2 POP SWAP1 POP DUP1 PUSH1 0x0 ADD DUP1 SLOAD PUSH2 0x323 SWAP1 PUSH2 0xC8D JUMP JUMPDEST DUP1 PUSH1 0x1F ADD PUSH1 0x20 DUP1 SWAP2 DIV MUL PUSH1 0x20 ADD PUSH1 0x40 MLOAD SWAP1 DUP2 ADD PUSH1 0x40 MSTORE DUP1 SWAP3 SWAP2 SWAP1 DUP2 DUP2 MSTORE PUSH1 0x20 ADD DUP3 DUP1 SLOAD PUSH2 0x34F SWAP1 PUSH2 0xC8D JUMP JUMPDEST DUP1 ISZERO PUSH2 0x39C JUMPI DUP1 PUSH1 0x1F LT PUSH2 0x371 JUMPI PUSH2 0x100 DUP1 DUP4 SLOAD DIV MUL DUP4 MSTORE SWAP2 PUSH1 0x20 ADD SWAP2 PUSH2 0x39C JUMP JUMPDEST DUP3 ADD SWAP2 SWAP1 PUSH1 0x0 MSTORE PUSH1 0x20 PUSH1 0x0 KECCAK256 SWAP1 JUMPDEST DUP2 SLOAD DUP2 MSTORE SWAP1 PUSH1 0x1 ADD SWAP1 PUSH1 0x20 ADD DUP1 DUP4 GT PUSH2 0x37F JUMPI DUP3 SWAP1 SUB PUSH1 0x1F AND DUP3 ADD SWAP2 JUMPDEST POP POP POP POP POP SWAP1 DUP1 PUSH1 0x1 ADD SLOAD SWAP1 DUP1 PUSH1 0x2 ADD PUSH1 0x0 SWAP1 SLOAD SWAP1 PUSH2 0x100 EXP SWAP1 DIV PUSH20 0xFFFFFFFFFFFFFFFFFFFFFFFFFFFFFFFFFFFFFFFF AND SWAP1 DUP1 PUSH1 0x2 ADD PUSH1 0x14 SWAP1 SLOAD SWAP1 PUSH2 0x100 EXP SWAP1 DIV PUSH1 0xFF AND SWAP1 DUP1 PUSH1 0x4 ADD SLOAD SWAP1 POP DUP6 JUMP JUMPDEST PUSH1 0x0 DUP1 SLOAD SWAP1 PUSH2 0x100 EXP SWAP1 DIV PUSH20 0xFFFFFFFFFFFFFFFFFFFFFFFFFFFFFFFFFFFFFFFF AND PUSH20 0xFFFFFFFFFFFFFFFFFFFFFFFFFFFFFFFFFFFFFFFF AND CALLER PUSH20 0xFFFFFFFFFFFFFFFFFFFFFFFFFFFFFFFFFFFFFFFF AND EQ PUSH2 0x443 JUMPI PUSH1 0x0 DUP1 REVERT JUMPDEST PUSH1 0x2 PUSH1 0x0 CALLER PUSH20 0xFFFFFFFFFFFFFFFFFFFFFFFFFFFFFFFFFFFFFFFF AND PUSH20 0xFFFFFFFFFFFFFFFFFFFFFFFFFFFFFFFFFFFFFFFF AND DUP2 MSTORE PUSH1 0x20 ADD SWAP1 DUP2 MSTORE PUSH1 0x20 ADD PUSH1 0x0 KECCAK256 PUSH1 0x0 SWAP1 SLOAD SWAP1 PUSH2 0x100 EXP SWAP1 DIV PUSH1 0xFF AND PUSH2 0x499 JUMPI PUSH1 0x0 DUP1 REVERT JUMPDEST PUSH1 0x0 PUSH1 0x4 PUSH1 0x1 DUP2 PUSH1 0x1 DUP2 SLOAD ADD DUP1 DUP3 SSTORE DUP1 SWAP2 POP POP SUB SWAP1 PUSH1 0x0 MSTORE PUSH1 0x20 PUSH1 0x0 KECCAK256 SWAP1 PUSH1 0x5 MUL ADD SWAP1 POP DUP4 DUP2 PUSH1 0x0 ADD SWAP1 DUP1 MLOAD SWAP1 PUSH1 0x20 ADD SWAP1 PUSH2 0x4D5 SWAP3 SWAP2 SWAP1 PUSH2 0x722 JUMP JUMPDEST POP DUP3 DUP2 PUSH1 0x1 ADD DUP2 SWAP1 SSTORE POP DUP2 DUP2 PUSH1 0x2 ADD PUSH1 0x0 PUSH2 0x100 EXP DUP2 SLOAD DUP2 PUSH20 0xFFFFFFFFFFFFFFFFFFFFFFFFFFFFFFFFFFFFFFFF MUL NOT AND SWAP1 DUP4 PUSH20 0xFFFFFFFFFFFFFFFFFFFFFFFFFFFFFFFFFFFFFFFF AND MUL OR SWAP1 SSTORE POP PUSH1 0x0 DUP2 PUSH1 0x2 ADD PUSH1 0x14 PUSH2 0x100 EXP DUP2 SLOAD DUP2 PUSH1 0xFF MUL NOT AND SWAP1 DUP4 ISZERO ISZERO MUL OR SWAP1 SSTORE POP PUSH1 0x0 DUP2 PUSH1 0x4 ADD DUP2 SWAP1 SSTORE POP POP POP POP POP JUMP JUMPDEST PUSH1 0x1 SLOAD DUP2 JUMP JUMPDEST PUSH1 0x1 SLOAD CALLVALUE GT PUSH2 0x563 JUMPI PUSH1 0x0 DUP1 REVERT JUMPDEST PUSH1 0x1 PUSH1 0x2 PUSH1 0x0 CALLER PUSH20 0xFFFFFFFFFFFFFFFFFFFFFFFFFFFFFFFFFFFFFFFF AND PUSH20 0xFFFFFFFFFFFFFFFFFFFFFFFFFFFFFFFFFFFFFFFF AND DUP2 MSTORE PUSH1 0x20 ADD SWAP1 DUP2 MSTORE PUSH1 0x20 ADD PUSH1 0x0 KECCAK256 PUSH1 0x0 PUSH2 0x100 EXP DUP2 SLOAD DUP2 PUSH1 0xFF MUL NOT AND SWAP1 DUP4 ISZERO ISZERO MUL OR SWAP1 SSTORE POP PUSH1 0x3 PUSH1 0x0 DUP2 SLOAD DUP1 SWAP3 SWAP2 SWAP1 PUSH2 0x5CE SWAP1 PUSH2 0xCBE JUMP JUMPDEST SWAP2 SWAP1 POP SSTORE POP JUMP JUMPDEST PUSH1 0x2 PUSH1 0x0 CALLER PUSH20 0xFFFFFFFFFFFFFFFFFFFFFFFFFFFFFFFFFFFFFFFF AND PUSH20 0xFFFFFFFFFFFFFFFFFFFFFFFFFFFFFFFFFFFFFFFF AND DUP2 MSTORE PUSH1 0x20 ADD SWAP1 DUP2 MSTORE PUSH1 0x20 ADD PUSH1 0x0 KECCAK256 PUSH1 0x0 SWAP1 SLOAD SWAP1 PUSH2 0x100 EXP SWAP1 DIV PUSH1 0xFF AND PUSH2 0x62B JUMPI PUSH1 0x0 DUP1 REVERT JUMPDEST PUSH1 0x0 PUSH1 0x4 DUP3 DUP2 SLOAD DUP2 LT PUSH2 0x641 JUMPI PUSH2 0x640 PUSH2 0xBA0 JUMP JUMPDEST JUMPDEST SWAP1 PUSH1 0x0 MSTORE PUSH1 0x20 PUSH1 0x0 KECCAK256 SWAP1 PUSH1 0x5 MUL ADD SWAP1 POP DUP1 PUSH1 0x3 ADD PUSH1 0x0 CALLER PUSH20 0xFFFFFFFFFFFFFFFFFFFFFFFFFFFFFFFFFFFFFFFF AND PUSH20 0xFFFFFFFFFFFFFFFFFFFFFFFFFFFFFFFFFFFFFFFF AND DUP2 MSTORE PUSH1 0x20 ADD SWAP1 DUP2 MSTORE PUSH1 0x20 ADD PUSH1 0x0 KECCAK256 PUSH1 0x0 SWAP1 SLOAD SWAP1 PUSH2 0x100 EXP SWAP1 DIV PUSH1 0xFF AND ISZERO PUSH2 0x6AA JUMPI PUSH1 0x0 DUP1 REVERT JUMPDEST PUSH1 0x1 DUP2 PUSH1 0x3 ADD PUSH1 0x0 CALLER PUSH20 0xFFFFFFFFFFFFFFFFFFFFFFFFFFFFFFFFFFFFFFFF AND PUSH20 0xFFFFFFFFFFFFFFFFFFFFFFFFFFFFFFFFFFFFFFFF AND DUP2 MSTORE PUSH1 0x20 ADD SWAP1 DUP2 MSTORE PUSH1 0x20 ADD PUSH1 0x0 KECCAK256 PUSH1 0x0 PUSH2 0x100 EXP DUP2 SLOAD DUP2 PUSH1 0xFF MUL NOT AND SWAP1 DUP4 ISZERO ISZERO MUL OR SWAP1 SSTORE POP DUP1 PUSH1 0x4 ADD PUSH1 0x0 DUP2 SLOAD DUP1 SWAP3 SWAP2 SWAP1 PUSH2 0x719 SWAP1 PUSH2 0xCBE JUMP JUMPDEST SWAP2 SWAP1 POP SSTORE POP POP POP JUMP JUMPDEST DUP3 DUP1 SLOAD PUSH2 0x72E SWAP1 PUSH2 0xC8D JUMP JUMPDEST SWAP1 PUSH1 0x0 MSTORE PUSH1 0x20 PUSH1 0x0 KECCAK256 SWAP1 PUSH1 0x1F ADD PUSH1 0x20 SWAP1 DIV DUP2 ADD SWAP3 DUP3 PUSH2 0x750 JUMPI PUSH1 0x0 DUP6 SSTORE PUSH2 0x797 JUMP JUMPDEST DUP3 PUSH1 0x1F LT PUSH2 0x769 JUMPI DUP1 MLOAD PUSH1 0xFF NOT AND DUP4 DUP1 ADD OR DUP6 SSTORE PUSH2 0x797 JUMP JUMPDEST DUP3 DUP1 ADD PUSH1 0x1 ADD DUP6 SSTORE DUP3 ISZERO PUSH2 0x797 JUMPI SWAP2 DUP3 ADD JUMPDEST DUP3 DUP2 GT ISZERO PUSH2 0x796 JUMPI DUP3 MLOAD DUP3 SSTORE SWAP2 PUSH1 0x20 ADD SWAP2 SWAP1 PUSH1 0x1 ADD SWAP1 PUSH2 0x77B JUMP JUMPDEST JUMPDEST POP SWAP1 POP PUSH2 0x7A4 SWAP2 SWAP1 PUSH2 0x7A8 JUMP JUMPDEST POP SWAP1 JUMP JUMPDEST JUMPDEST DUP1 DUP3 GT ISZERO PUSH2 0x7C1 JUMPI PUSH1 0x0 DUP2 PUSH1 0x0 SWAP1 SSTORE POP PUSH1 0x1 ADD PUSH2 0x7A9 JUMP JUMPDEST POP SWAP1 JUMP JUMPDEST PUSH1 0x0 PUSH1 0x40 MLOAD SWAP1 POP SWAP1 JUMP JUMPDEST PUSH1 0x0 DUP1 REVERT JUMPDEST PUSH1 0x0 DUP1 REVERT JUMPDEST PUSH1 0x0 DUP2 SWAP1 POP SWAP2 SWAP1 POP JUMP JUMPDEST PUSH2 0x7EC DUP2 PUSH2 0x7D9 JUMP JUMPDEST DUP2 EQ PUSH2 0x7F7 JUMPI PUSH1 0x0 DUP1 REVERT JUMPDEST POP JUMP JUMPDEST PUSH1 0x0 DUP2 CALLDATALOAD SWAP1 POP PUSH2 0x809 DUP2 PUSH2 0x7E3 JUMP JUMPDEST SWAP3 SWAP2 POP POP JUMP JUMPDEST PUSH1 0x0 PUSH1 0x20 DUP3 DUP5 SUB SLT ISZERO PUSH2 0x825 JUMPI PUSH2 0x824 PUSH2 0x7CF JUMP JUMPDEST JUMPDEST PUSH1 0x0 PUSH2 0x833 DUP5 DUP3 DUP6 ADD PUSH2 0x7FA JUMP JUMPDEST SWAP2 POP POP SWAP3 SWAP2 POP POP JUMP JUMPDEST PUSH1 0x0 PUSH20 0xFFFFFFFFFFFFFFFFFFFFFFFFFFFFFFFFFFFFFFFF DUP3 AND SWAP1 POP SWAP2 SWAP1 POP JUMP JUMPDEST PUSH1 0x0 PUSH2 0x867 DUP3 PUSH2 0x83C JUMP JUMPDEST SWAP1 POP SWAP2 SWAP1 POP JUMP JUMPDEST PUSH2 0x877 DUP2 PUSH2 0x85C JUMP JUMPDEST DUP3 MSTORE POP POP JUMP JUMPDEST PUSH1 0x0 PUSH1 0x20 DUP3 ADD SWAP1 POP PUSH2 0x892 PUSH1 0x0 DUP4 ADD DUP5 PUSH2 0x86E JUMP JUMPDEST SWAP3 SWAP2 POP POP JUMP JUMPDEST PUSH1 0x0 DUP2 MLOAD SWAP1 POP SWAP2 SWAP1 POP JUMP JUMPDEST PUSH1 0x0 DUP3 DUP3 MSTORE PUSH1 0x20 DUP3 ADD SWAP1 POP SWAP3 SWAP2 POP POP JUMP JUMPDEST PUSH1 0x0 JUMPDEST DUP4 DUP2 LT ISZERO PUSH2 0x8D2 JUMPI DUP1 DUP3 ADD MLOAD DUP2 DUP5 ADD MSTORE PUSH1 0x20 DUP2 ADD SWAP1 POP PUSH2 0x8B7 JUMP JUMPDEST DUP4 DUP2 GT ISZERO PUSH2 0x8E1 JUMPI PUSH1 0x0 DUP5 DUP5 ADD MSTORE JUMPDEST POP POP POP POP JUMP JUMPDEST PUSH1 0x0 PUSH1 0x1F NOT PUSH1 0x1F DUP4 ADD AND SWAP1 POP SWAP2 SWAP1 POP JUMP JUMPDEST PUSH1 0x0 PUSH2 0x903 DUP3 PUSH2 0x898 JUMP JUMPDEST PUSH2 0x90D DUP2 DUP6 PUSH2 0x8A3 JUMP JUMPDEST SWAP4 POP PUSH2 0x91D DUP2 DUP6 PUSH1 0x20 DUP7 ADD PUSH2 0x8B4 JUMP JUMPDEST PUSH2 0x926 DUP2 PUSH2 0x8E7 JUMP JUMPDEST DUP5 ADD SWAP2 POP POP SWAP3 SWAP2 POP POP JUMP JUMPDEST PUSH2 0x93A DUP2 PUSH2 0x7D9 JUMP JUMPDEST DUP3 MSTORE POP POP JUMP JUMPDEST PUSH1 0x0 DUP2 ISZERO ISZERO SWAP1 POP SWAP2 SWAP1 POP JUMP JUMPDEST PUSH2 0x955 DUP2 PUSH2 0x940 JUMP JUMPDEST DUP3 MSTORE POP POP JUMP JUMPDEST PUSH1 0x0 PUSH1 0xA0 DUP3 ADD SWAP1 POP DUP2 DUP2 SUB PUSH1 0x0 DUP4 ADD MSTORE PUSH2 0x975 DUP2 DUP9 PUSH2 0x8F8 JUMP JUMPDEST SWAP1 POP PUSH2 0x984 PUSH1 0x20 DUP4 ADD DUP8 PUSH2 0x931 JUMP JUMPDEST PUSH2 0x991 PUSH1 0x40 DUP4 ADD DUP7 PUSH2 0x86E JUMP JUMPDEST PUSH2 0x99E PUSH1 0x60 DUP4 ADD DUP6 PUSH2 0x94C JUMP JUMPDEST PUSH2 0x9AB PUSH1 0x80 DUP4 ADD DUP5 PUSH2 0x931 JUMP JUMPDEST SWAP7 SWAP6 POP POP POP POP POP POP JUMP JUMPDEST PUSH1 0x0 DUP1 REVERT JUMPDEST PUSH1 0x0 DUP1 REVERT JUMPDEST PUSH32 0x4E487B7100000000000000000000000000000000000000000000000000000000 PUSH1 0x0 MSTORE PUSH1 0x41 PUSH1 0x4 MSTORE PUSH1 0x24 PUSH1 0x0 REVERT JUMPDEST PUSH2 0x9F7 DUP3 PUSH2 0x8E7 JUMP JUMPDEST DUP2 ADD DUP2 DUP2 LT PUSH8 0xFFFFFFFFFFFFFFFF DUP3 GT OR ISZERO PUSH2 0xA16 JUMPI PUSH2 0xA15 PUSH2 0x9BF JUMP JUMPDEST JUMPDEST DUP1 PUSH1 0x40 MSTORE POP POP POP JUMP JUMPDEST PUSH1 0x0 PUSH2 0xA29 PUSH2 0x7C5 JUMP JUMPDEST SWAP1 POP PUSH2 0xA35 DUP3 DUP3 PUSH2 0x9EE JUMP JUMPDEST SWAP2 SWAP1 POP JUMP JUMPDEST PUSH1 0x0 PUSH8 0xFFFFFFFFFFFFFFFF DUP3 GT ISZERO PUSH2 0xA55 JUMPI PUSH2 0xA54 PUSH2 0x9BF JUMP JUMPDEST JUMPDEST PUSH2 0xA5E DUP3 PUSH2 0x8E7 JUMP JUMPDEST SWAP1 POP PUSH1 0x20 DUP2 ADD SWAP1 POP SWAP2 SWAP1 POP JUMP JUMPDEST DUP3 DUP2 DUP4 CALLDATACOPY PUSH1 0x0 DUP4 DUP4 ADD MSTORE POP POP POP JUMP JUMPDEST PUSH1 0x0 PUSH2 0xA8D PUSH2 0xA88 DUP5 PUSH2 0xA3A JUMP JUMPDEST PUSH2 0xA1F JUMP JUMPDEST SWAP1 POP DUP3 DUP2 MSTORE PUSH1 0x20 DUP2 ADD DUP5 DUP5 DUP5 ADD GT ISZERO PUSH2 0xAA9 JUMPI PUSH2 0xAA8 PUSH2 0x9BA JUMP JUMPDEST JUMPDEST PUSH2 0xAB4 DUP5 DUP3 DUP6 PUSH2 0xA6B JUMP JUMPDEST POP SWAP4 SWAP3 POP POP POP JUMP JUMPDEST PUSH1 0x0 DUP3 PUSH1 0x1F DUP4 ADD SLT PUSH2 0xAD1 JUMPI PUSH2 0xAD0 PUSH2 0x9B5 JUMP JUMPDEST JUMPDEST DUP2 CALLDATALOAD PUSH2 0xAE1 DUP5 DUP3 PUSH1 0x20 DUP7 ADD PUSH2 0xA7A JUMP JUMPDEST SWAP2 POP POP SWAP3 SWAP2 POP POP JUMP JUMPDEST PUSH2 0xAF3 DUP2 PUSH2 0x85C JUMP JUMPDEST DUP2 EQ PUSH2 0xAFE JUMPI PUSH1 0x0 DUP1 REVERT JUMPDEST POP JUMP JUMPDEST PUSH1 0x0 DUP2 CALLDATALOAD SWAP1 POP PUSH2 0xB10 DUP2 PUSH2 0xAEA JUMP JUMPDEST SWAP3 SWAP2 POP POP JUMP JUMPDEST PUSH1 0x0 DUP1 PUSH1 0x0 PUSH1 0x60 DUP5 DUP7 SUB SLT ISZERO PUSH2 0xB2F JUMPI PUSH2 0xB2E PUSH2 0x7CF JUMP JUMPDEST JUMPDEST PUSH1 0x0 DUP5 ADD CALLDATALOAD PUSH8 0xFFFFFFFFFFFFFFFF DUP2 GT ISZERO PUSH2 0xB4D JUMPI PUSH2 0xB4C PUSH2 0x7D4 JUMP JUMPDEST JUMPDEST PUSH2 0xB59 DUP7 DUP3 DUP8 ADD PUSH2 0xABC JUMP JUMPDEST SWAP4 POP POP PUSH1 0x20 PUSH2 0xB6A DUP7 DUP3 DUP8 ADD PUSH2 0x7FA JUMP JUMPDEST SWAP3 POP POP PUSH1 0x40 PUSH2 0xB7B DUP7 DUP3 DUP8 ADD PUSH2 0xB01 JUMP JUMPDEST SWAP2 POP POP SWAP3 POP SWAP3 POP SWAP3 JUMP JUMPDEST PUSH1 0x0 PUSH1 0x20 DUP3 ADD SWAP1 POP PUSH2 0xB9A PUSH1 0x0 DUP4 ADD DUP5 PUSH2 0x931 JUMP JUMPDEST SWAP3 SWAP2 POP POP JUMP JUMPDEST PUSH32 0x4E487B7100000000000000000000000000000000000000000000000000000000 PUSH1 0x0 MSTORE PUSH1 0x32 PUSH1 0x4 MSTORE PUSH1 0x24 PUSH1 0x0 REVERT JUMPDEST PUSH32 0x4E487B7100000000000000000000000000000000000000000000000000000000 PUSH1 0x0 MSTORE PUSH1 0x12 PUSH1 0x4 MSTORE PUSH1 0x24 PUSH1 0x0 REVERT JUMPDEST PUSH32 0x4E487B7100000000000000000000000000000000000000000000000000000000 PUSH1 0x0 MSTORE PUSH1 0x11 PUSH1 0x4 MSTORE PUSH1 0x24 PUSH1 0x0 REVERT JUMPDEST PUSH1 0x0 PUSH2 0xC38 DUP3 PUSH2 0x7D9 JUMP JUMPDEST SWAP2 POP PUSH2 0xC43 DUP4 PUSH2 0x7D9 JUMP JUMPDEST SWAP3 POP DUP3 PUSH2 0xC53 JUMPI PUSH2 0xC52 PUSH2 0xBCF JUMP JUMPDEST JUMPDEST DUP3 DUP3 DIV SWAP1 POP SWAP3 SWAP2 POP POP JUMP JUMPDEST PUSH32 0x4E487B7100000000000000000000000000000000000000000000000000000000 PUSH1 0x0 MSTORE PUSH1 0x22 PUSH1 0x4 MSTORE PUSH1 0x24 PUSH1 0x0 REVERT JUMPDEST PUSH1 0x0 PUSH1 0x2 DUP3 DIV SWAP1 POP PUSH1 0x1 DUP3 AND DUP1 PUSH2 0xCA5 JUMPI PUSH1 0x7F DUP3 AND SWAP2 POP JUMPDEST PUSH1 0x20 DUP3 LT DUP2 SUB PUSH2 0xCB8 JUMPI PUSH2 0xCB7 PUSH2 0xC5E JUMP JUMPDEST JUMPDEST POP SWAP2 SWAP1 POP JUMP JUMPDEST PUSH1 0x0 PUSH2 0xCC9 DUP3 PUSH2 0x7D9 JUMP JUMPDEST SWAP2 POP PUSH32 0xFFFFFFFFFFFFFFFFFFFFFFFFFFFFFFFFFFFFFFFFFFFFFFFFFFFFFFFFFFFFFFFF DUP3 SUB PUSH2 0xCFB JUMPI PUSH2 0xCFA PUSH2 0xBFE JUMP JUMPDEST JUMPDEST PUSH1 0x1 DUP3 ADD SWAP1 POP SWAP2 SWAP1 POP JUMP INVALID LOG2 PUSH5 0x6970667358 0x22 SLT KECCAK256 PUSH8 0x1DBC9BF7B7EF5B80 GASLIMIT PUSH32 0xB46103C2271107CC77C98F4E163F2735F5ED12267F64736F6C634300080D0033 LOG2 PUSH5 0x6970667358 0x22 SLT KECCAK256 0xAC 0xD1 SWAP14 SWAP12 0xB6 DUP15 0x4B 0x24 PUSH6 0x2EC5C50AE333 DUP11 PUSH5 0x3D039C4A7E RETURNDATACOPY LT 0xAC 0xA7 0xD MSTORE 0xBF 0x1E CALLER SGT PUSH5 0x736F6C6343 STOP ADDMOD 0xD STOP CALLER "},"gasEstimates":{"creation":{"codeDepositCost":"942000","executionCost":"981","totalCost":"942981"},"external":{"createCampaign(uint256)":"infinite","getDeployedCampaigns()":"infinite"}},"methodIdentifiers":{"createCampaign(uint256)":"a3303a75","getDeployedCampaigns()":"4acb9d4f"}},"storageLayout":{"storage":[{"astId":4,"contract":"Campaign.sol:CampaignFactory","label":"deployedCampaigns","offset":0,"slot":"0","type":"t_array(t_address)dyn_storage"}],"types":{"t_address":{"encoding":"inplace","label":"address","numberOfBytes":"20"},"t_array(t_address)dyn_storage":{"base":"t_address","encoding":"dynamic_array","label":"address[]","numberOfBytes":"32"}}},"userdoc":{"kind":"user","methods":{},"version":1}}